:020000040800F2
:10000000000600204102000841380008414600086F
:1000100041460008414600084146000841460008A4
:1000200041460008414600084146000831380008B2
:100030004146000841460008915D0008E15D000866
:1000400001380008013800080138000801380008AC
:10005000013800080138000801380008013800089C
:10006000013800080138000801380008013800088C
:10007000013800080138000801380008013800087C
:10008000013800080138000801380008013800086C
:10009000013800080138000801380008013800085C
:1000A000013800080138000801380008013800084C
:1000B000013800080138000801380008013800083C
:1000C000013800080138000801380008013800082C
:1000D000013800080138000801380008013800081C
:1000E000013800080138000801380008013800080C
:1000F00001380008013800080138000801380008FC
:1001000001380008013800080138000801380008EB
:1001100001380008013800080138000801380008DB
:1001200001380008013800080138000801380008CB
:1001300001380008013800080138000801380008BB
:1001400001380008013800080138000801380008AB
:10015000013800080138000801380008013800089B
:10016000013800080138000801380008013800088B
:10017000013800080138000801380008013800087B
:10018000013800080138000801380008013800086B
:10019000013800080138000801380008013800085B
:1001A000013800080138000801380008013800084B
:1001B000013800080138000801380008013800083B
:1001C000013800080138000801380008013800082B
:1001D000013800080138000801380008013800081B
:1001E000013800080138000801380008013800080B
:1001F00001380008013800080138000801380008FB
:1002000001380008013800080138000801380008EA
:08021000013800080138000864
:0C021800B003000851260008312800083F
:04022400700300085B
:100230000DC0A0E1F8DF2DE904B04CE200000000A1
:1002400072B633488546334880F30988022080F32C
:100250001488BFF36F8F30482E49FA2200F051F80E
:100260002E482B49FA2200F04CF8DFF8B400016860
:1002700041F4700101602B482B492C4A00F036F8FC
:100280002B482C49002200F03CF82B4A90472B4881
:100290002B492C4A90472C482C490430884205D0E1
:1002A0000268043003B4904703BCF7E7284A90473C
:1002B000284A9047002000218646EC46264A90476F
:1002C00026482749884205D00268043003B4904785
:1002D00003BCF7E7FFF7B4BFFFF7FEBF04F0B0B908
:1002E00004F0AEB904F0ACB904F0AAB9884207D062
:1002F000521A05D0037801300B700131013AF9D15F
:100300007047884202D002700130FAE7704700005F
:1003100000060020000C0020000600200000002045
:1003200088ED00E060B70008000C00207C0D002084
:100330007C0D0020FC23002041430008FC2300200A
:10034000008001202167000818020008240200082C
:100350008152000861430008517800082402000817
:10036000280200080000000000000000000000005B
:1003700010402DE928409FE50030D4E5000053E30C
:100380000500001A1C309FE5000053E318009F157C
:100390000000A0110130A0E30030C4E51040BDE82A
:1003A0001EFF2FE17C0D0020000000005CB700085C
:1003B0001C309FE5000053E31EFF2F0110402DE984
:1003C00010109FE510009FE50000A0E11040BDE87F
:1003D0001EFF2FE100000000800D00205CB7000828
:1003E00081F0004102E000BF83F0004330B54FEAE6
:1003F00041044FEA430594EA050F08BF90EA020F53
:100400001FBF54EA000C55EA020C7FEA645C7FEAE5
:10041000655C00F0E2804FEA5454D4EB5555B8BF08
:100420006D420CDD2C4480EA020281EA030382EA79
:10043000000083EA010180EA020281EA0303362D0B
:1004400088BF30BD11F0004F4FEA01314FF4801CDE
:100450004CEA113102D0404261EB410113F0004FF0
:100460004FEA03334CEA133302D0524263EB4303A7
:1004700094EA050F00F0A780A4F10104D5F1200E45
:100480000DDB02FA0EFC22FA05F2801841F10001A0
:1004900003FA0EF2801843FA05F359410EE0A5F174
:1004A00020050EF1200E012A03FA0EFC28BF4CF0A5
:1004B000020C43FA05F3C01851EBE37101F000455B
:1004C00007D54FF0000EDCF1000C7EEB00006EEB68
:1004D0000101B1F5801F1BD3B1F5001F0CD34908F2
:1004E0005FEA30004FEA3C0C04F101044FEA445249
:1004F00012F5800F80F09A80BCF1004F08BF5FEAD0
:10050000500C50F1000041EB045141EA050130BDAF
:100510005FEA4C0C404141EB0101013C28BFB1F5C1
:10052000801FE9D291F0000F04BF01460020B1FA0C
:1005300081F308BF2033A3F10B03B3F120020CDADF
:100540000C3208DD02F1140CC2F10C0201FA0CF0BD
:1005500021FA02F10CE002F11402D8BFC2F1200C22
:1005600001FA02F120FA0CFCDCBF41EA0C019040D8
:10057000E41AA2BF01EB0451294330BD6FEA040421
:100580001F3C1CDA0C340EDC04F11404C4F120020C
:1005900020FA04F001FA02F340EA030021FA04F31E
:1005A00045EA030130BDC4F10C04C4F1200220FA75
:1005B00002F001FA04F340EA0300294630BD21FAB3
:1005C00004F0294630BD94F0000F83F4801306BF79
:1005D00081F480110134013D4EE77FEA645C18BF6D
:1005E0007FEA655C29D094EA050F08BF90EA020F04
:1005F00005D054EA000C04BF1946104630BD91EAFC
:10060000030F1EBF0021002030BD5FEA545C05D1FE
:100610004000494128BF41F0004130BD14F580043D
:100620003CBF01F5801130BD01F0004545F0FE41B1
:1006300041F470014FF0000030BD7FEA645C1ABFE6
:10064000194610467FEA655C1CBF0B46024650EA1D
:10065000013406BF52EA033591EA030F41F4002149
:1006600030BD00BF90F0000F04BF0021704730B5CF
:100670004FF4806404F132044FF000054FF00001A4
:1006800050E700BF90F0000F04BF0021704730B565
:100690004FF4806404F1320410F0004548BF40423A
:1006A0004FF000013EE700BF42004FEAE2014FEA8F
:1006B00031014FEA02701FBF12F07F4393F07F4F6A
:1006C00081F06051704732F07F4208BF704793F06D
:1006D0007F4F04BF41F40021704730B54FF4607480
:1006E00001F0004521F000411CE700BF50EA010283
:1006F00008BF704730B54FF000050AE050EA01022C
:1007000008BF704730B511F0004502D5404261EB9B
:1007100041014FF4806404F132045FEA915C3FF4DC
:10072000D8AE4FF003025FEADC0C18BF03325FEA79
:10073000DC0C18BF033202EBDC02C2F1200300FA2A
:1007400003FC20FA02F001FA03FE40EA0E0021FA4F
:1007500002F11444BDE600BF0000000000000000EC
:1007600070B54FF0FF0C4CF4E06C1CEA11541DBF47
:100770001CEA135594EA0C0F95EA0C0F00F0DEF812
:100780002C4481EA030621EA4C5123EA4C5350EAF7
:10079000013518BF52EA033541F4801143F4801348
:1007A00038D0A0FB02CE4FF00005E1FB02E506F0D9
:1007B0000042E0FB03E54FF00006E1FB03569CF02E
:1007C000000F18BF4EF0010EA4F1FF04B6F5007F34
:1007D00064F5407404D25FEA4E0E6D4146EB0606A6
:1007E00042EAC62141EA55514FEAC52040EA5E502F
:1007F0004FEACE2EB4F1FD0C88BFBCF5E06F1ED8D9
:10080000BEF1004F08BF5FEA500E50F1000041EB0F
:10081000045170BD06F0004646EA010140EA0200BC
:1008200081EA0301B4EB5C04C2BFD4EB0C0541EADE
:10083000045170BD41F480114FF0000E013C00F3F3
:10084000AB8014F1360FDEBF002001F0004170BD17
:10085000C4F10004203C35DA0C341BDC04F1140430
:10086000C4F1200500FA05F320FA04F001FA05F2BC
:1008700040EA020001F0004221F0004110EBD37089
:1008800021FA04F642EB06015EEA430E08BF20EAB5
:10089000D37070BDC4F10C04C4F1200500FA04F358
:1008A00020FA05F001FA04F240EA020001F00041EA
:1008B00010EBD37041F100015EEA430E08BF20EA5D
:1008C000D37070BDC4F1200500FA05F24EEA020EA5
:1008D00020FA04F301FA05F243EA020321FA04F0D4
:1008E00001F0004121FA04F220EA020000EBD3708B
:1008F0005EEA430E08BF20EAD37070BD94F0000F8B
:100900000FD101F00046400041EB010111F4801FBE
:1009100008BF013CF7D041EA060195F0000F18BF6F
:10092000704703F00046520043EB030313F4801FAB
:1009300008BF013DF7D043EA0603704794EA0C0F65
:100940000CEA135518BF95EA0C0F0CD050EA41067B
:1009500018BF52EA4306D1D181EA030101F00041F8
:100960004FF0000070BD50EA410606BF1046194620
:1009700052EA430619D094EA0C0F02D150EA01362C
:1009800013D195EA0C0F05D152EA03361CBF10466D
:1009900019460AD181EA030101F0004141F0FE410C
:1009A00041F470014FF0000070BD41F0FE4141F490
:1009B000780170BD70B54FF0FF0C4CF4E06C1CEA90
:1009C00011541DBF1CEA135594EA0C0F95EA0C0F45
:1009D00000F0A7F8A4EB050481EA030E52EA033500
:1009E0004FEA013100F088804FEA03334FF0805521
:1009F00045EA131343EA12634FEA022245EA11154E
:100A000045EA10654FEA00260EF000419D4208BFFE
:100A1000964244F1FD0404F5407402D25B084FEAAB
:100A20003202B61A65EB03055B084FEA32024FF457
:100A300080104FF4002CB6EB020E75EB030E22BFB4
:100A4000B61A754640EA0C005B084FEA3202B6EB74
:100A5000020E75EB030E22BFB61A754640EA5C0023
:100A60005B084FEA3202B6EB020E75EB030E22BFB3
:100A7000B61A754640EA9C005B084FEA3202B6EBB4
:100A8000020E75EB030E22BFB61A754640EADC0073
:100A900055EA060E18D04FEA051545EA16754FEAD5
:100AA00006164FEAC30343EA52734FEAC2025FEAF3
:100AB0001C1CC0D111F4801F0BD141EA00014FF082
:100AC00000004FF0004CB6E711F4801F04BF014353
:100AD0000020B4F1FD0C88BFBCF5E06F3FF6AFAE6F
:100AE000B5EB030C04BFB6EB020C5FEA500C50F1FF
:100AF000000041EB045170BD0EF0004E4EEA113182
:100B000014EB5C04C2BFD4EB0C0541EA045170BD88
:100B100041F480114FF0000E013C90E645EA060ECC
:100B20008DE60CEA135594EA0C0F08BF95EA0C0FFA
:100B30003FF43BAF94EA0C0F0AD150EA01347FF442
:100B400034AF95EA0C0F7FF425AF104619462CE719
:100B500095EA0C0F06D152EA03353FF4FDAE10467C
:100B6000194622E750EA410618BF52EA43067FF4CD
:100B7000C5AE50EA41047FF40DAF52EA43057FF45D
:100B8000EBAE12E7000000000000000000000000D3
:100B90004FF0FF3C06E000BF4FF0010C02E000BF49
:100BA0004FF0010C4DF804CD4FEA410C7FEA6C5C2C
:100BB0004FEA430C18BF7FEA6C5C1BD001B050EACF
:100BC000410C0CBF52EA430C91EA030F02BF90EABA
:100BD000020F0020704710F1000F91EA030F58BF79
:100BE000994208BF90422CBFD8176FEAE37040F0DB
:100BF000010070474FEA410C7FEA6C5C02D150EA79
:100C0000013C07D14FEA430C7FEA6C5CD6D152EA33
:100C1000033CD3D05DF8040B704700BF84461046F8
:100C200062468C461946634600E000BF01B5FFF7F7
:100C3000B7FF002848BF10F1000F01BD4DF808EDC7
:100C4000FFF7F4FF0CBF012000205DF808FB00BF98
:100C50004DF808EDFFF7EAFF34BF012000205DF8F2
:100C600008FB00BF4DF808EDFFF7E0FF94BF01203F
:100C700000205DF808FB00BF4DF808EDFFF7CEFF40
:100C800094BF012000205DF808FB00BF4DF808ED7F
:100C9000FFF7C4FF34BF012000205DF808FB00BF50
:100CA0004FEA410212F5001215D211D56FF4787394
:100CB000B3EB625212D94FEAC12343F0004343EA37
:100CC000505311F0004F23FA02F018BF4042704712
:100CD0004FF00000704750EA013005D111F000409C
:100CE00008BF6FF0004070474FF00000704700BF32
:100CF00080F0004002E000BF81F0004142001FBFD1
:100D00005FEA410392EA030F7FEA226C7FEA236CD9
:100D10006AD04FEA1262D2EB1363C1BFD2184140CE
:100D200048404140B8BF5B42192B88BF704710F064
:100D3000004F40F4000020F07F4018BF404211F007
:100D4000004F41F4000121F07F4118BF494292EA6F
:100D5000030F3FD0A2F1010241FA03FC10EB0C009B
:100D6000C3F1200301FA03F100F0004302D5494228
:100D700060EB4000B0F5000F13D3B0F1807F06D3D5
:100D800040084FEA310102F10102FE2A51D2B1F1CD
:100D9000004F40EBC25008BF20F0010040EA0300C2
:100DA0007047490040EB0000013A28BFB0F5000F42
:100DB000EDD2B0FA80FCACF1080CB2EB0C0200FAF8
:100DC0000CF0AABF00EBC25052421843BCBFD04047
:100DD0001843704792F0000F81F4000106BF80F4C1
:100DE00000000132013BB5E74FEA41037FEA226C84
:100DF00018BF7FEA236C21D092EA030F04D092F04F
:100E0000000F08BF0846704790EA010F1CBF002082
:100E1000704712F07F4F04D1400028BF40F00040DF
:100E2000704712F100723CBF00F50000704700F0FF
:100E3000004343F0FE4040F4000070477FEA226226
:100E400016BF08467FEA23630146420206BF5FEAF7
:100E5000412390EA010F40F4800070474FF00003F7
:100E600004E000BF10F0004348BF40425FEA000CBE
:100E700008BF704743F0964301464FF000001CE066
:100E800050EA010208BF70474FF000030AE000BFBC
:100E900050EA010208BF704711F0004302D54042FA
:100EA00061EB41015FEA010C02BF8446014600206C
:100EB00043F0B64308BFA3F18053A3F50003BCFA87
:100EC0008CF2083AA3EBC25310DB01FA02FC634434
:100ED00000FA02FCC2F12002BCF1004F20FA02F23B
:100EE00043EB020008BF20F00100704702F120022E
:100EF00001FA02FCC2F1200250EA4C0021FA02F28F
:100F000043EB020008BF20EADC70704700000000DD
:100F10004FF0FF0C1CEAD0521EBF1CEAD15392EADC
:100F20000C0F93EA0C0F6FD01A4480EA010C4002B8
:100F300018BF5FEA41211ED04FF0006343EA501012
:100F400043EA5111A0FB01310CF00040B1F5000F54
:100F50003EBF490041EAD3715B0040EA010062F103
:100F60007F02FD2A1DD8B3F1004F40EBC25008BFED
:100F700020F00100704790F0000F0CF0004C08BF0B
:100F800049024CEA502040EA51207F3AC2BFD2F1D8
:100F9000FF0340EAC250704740F400004FF00003E6
:100FA000013A5DDC12F1190FDCBF00F00040704720
:100FB000C2F10002410021FA02F1C2F1200200FA5E
:100FC00002FC5FEA310040F1000053EA4C0308BF25
:100FD00020EADC70704792F0000F00F0004C02BF76
:100FE000400010F4000F013AF9D040EA0C0093F0F1
:100FF000000F01F0004C02BF490011F4000F013B4B
:10100000F9D041EA0C018FE70CEAD15392EA0C0FB8
:1010100018BF93EA0C0F0AD030F0004C18BF31F023
:10102000004CD8D180EA010000F00040704790F0F9
:10103000000F17BF90F0004F084691F0000F91F09D
:10104000004F14D092EA0C0F01D142020FD193EA63
:101050000C0F03D14B0218BF084608D180EA0100EB
:1010600000F0004040F0FE4040F40000704740F0C7
:10107000FE4040F4400070474FF0FF0C1CEAD05295
:101080001EBF1CEAD15392EA0C0F93EA0C0F69D0F1
:10109000A2EB030280EA010C49024FEA402037D05C
:1010A0004FF0805343EA111143EA10130CF0004053
:1010B0008B4238BF5B0042F17D024FF4000C8B4243
:1010C00024BF5B1A40EA0C00B3EB510F24BFA3EB23
:1010D000510340EA5C00B3EB910F24BFA3EB9103F3
:1010E00040EA9C00B3EBD10F24BFA3EBD10340EA4D
:1010F000DC001B0118BF5FEA1C1CE0D1FD2A3FF693
:1011000050AF8B4240EBC25008BF20F00100704747
:101110000CF0004C4CEA50207F32C2BFD2F1FF03EA
:1011200040EAC250704740F400004FF00003013A1B
:1011300037E792F0000F00F0004C02BF400010F4BF
:10114000000F013AF9D040EA0C0093F0000F01F0D3
:10115000004C02BF490011F4000F013BF9D041EAF5
:101160000C0195E70CEAD15392EA0C0F08D1420228
:101170007FF47DAF93EA0C0F7FF470AF084676E7FB
:1011800093EA0C0F04D14B023FF44CAF08466EE7D4
:1011900030F0004C18BF31F0004CCAD130F00042A2
:1011A0007FF45CAF31F000437FF43CAF5FE700BFFA
:1011B0004FF0FF3C06E000BF4FF0010C02E000BF23
:1011C0004FF0010C4DF804CD4FEA40024FEA4103C5
:1011D0007FEA226C18BF7FEA236C11D001B052EA7B
:1011E000530C18BF90EA010F58BFB2EB030088BF41
:1011F000C81738BF6FEAE17018BF40F001007047B0
:101200007FEA226C02D15FEA402C05D17FEA236C91
:10121000E4D15FEA412CE1D05DF8040B704700BFD8
:10122000844608466146FFE70FB5FFF7C9FF00286F
:1012300048BF10F1000F0FBD4DF808EDFFF7F4FFA8
:101240000CBF012000205DF808FB00BF4DF808ED41
:10125000FFF7EAFF34BF012000205DF808FB00BF64
:101260004DF808EDFFF7E0FF94BF012000205DF886
:1012700008FB00BF4DF808EDFFF7D2FF94BF012037
:1012800000205DF808FB00BF4DF808EDFFF7C8FF30
:1012900034BF012000205DF808FB00BF0000000003
:1012A0004FEA4002B2F1FE4F0FD34FF09E03B3EB73
:1012B00012620DD94FEA002343F0004310F0004FB3
:1012C00023FA02F018BF404270474FF00000704709
:1012D00012F1610F01D1420205D110F0004008BFA8
:1012E0006FF0004070474FF00000704700000000B2
:1012F00003685A004CBF43F0004323F000431844F6
:10130000704700BF2DE9F84329B34F1E0446154628
:101310003E464FF0000808EB060101EBD171491081
:1013200004EBC1094846FFF7E3FF0346C800083055
:101330008F42204409D0AB4209D8FFF7D9FF0138CA
:10134000A8420AD201F10108E5E7AB4205D9884578
:1013500001D04E1EDFE74FF000094846BDE8F88394
:10136000012807D0022807D0044B00280CBF1846DC
:10137000002070470248704702487047391A000839
:101380003D1A0008411A000830B5234B83B00446CB
:101390008D1E3BB301A92846AFF30080E8B1019947
:1013A0002A46FFF7AFFF0146B8B1FFF7A1FF4B6830
:1013B000A064012B2CD0002B01F1040024DBFFF7EB
:1013C00097FF0023C4E913030368002B11DBFFF729
:1013D0008FFF2061002003B030BD0023092023616E
:1013E00003B030BD0D4B0E49C91AC9101846019102
:1013F000D6E7C3F30360FFF7B3FF0028206114BFF3
:101400000020092003B030BD0123C4E91303DBE74A
:10141000002323610520DEE70000000064B6000819
:101420005CB700080368DA0710B5044606D49B07CA
:1014300000F1480009D500F05FFC2368590709D581
:101440001A070ED5DB0613D510BD00F04DFC23683E
:101450005907F5D404F1D00000F056FC23681A07B0
:10146000F0D404F5A87000F057FC2368DB06EBD439
:1014700004F5E870BDE8104000F092BC0920704708
:101480000346006800B11844704700BF704700BFB2
:1014900070B504460E46316C2046FFF775FF0546D1
:1014A00088B9326C6261236932462146012098472F
:1014B0000828F0D0072806D12846316CFFF7E6FF50
:1014C000301D00F005FC03F09BFE00BF2DE9F04746
:1014D0000D1DD0F80C80D0F81890074614460FCD9B
:1014E000ADF5727D0DF10C0CACE80F000FCDACE842
:1014F0000F000FCDACE80F0095E80F0002AE4FF0E3
:10150000000E8CE80F00C6F800E020E0336C7B6131
:101510004FF4F07231467AA806F0D2F83B697AAA05
:10152000394650469847889B73642146CDE9006947
:1015300005463B463A460120C0470446E0B94FF411
:10154000F0727AA9304606F0BBF8082D1AD1316C3A
:101550003846FFF719FF09345FFA84FA0546002878
:10156000D4D0B36B73643A46CDE900693B464AF088
:1015700010010120C04700B1092528460DF5727DF4
:10158000BDE8F087072DF7D12046316CFFF77EFFCD
:1015900003A800F09DFB00BF406C7047F0B5CB6B1B
:1015A0000B6401F1040C0E460546BCE80F00F9B0CF
:1015B00001AC0FC4BCE80F000FC4BCE80F000FC49F
:1015C0009CE80F004FF0FF3784E80F00009706E01B
:1015D0002B696A46294698470828044608D110997D
:1015E0002846FFF7D1FE0028F2D0092079B0F0BDDF
:1015F0006846FFF717FF062CF7D131462846FFF75C
:1016000047FF00BFC160D96B82611964002219468F
:101610005CE700BF70B5C66843690B64AEB9036987
:101620000A4604460D46014602209847072805D081
:1016300008280FD129462046FFF72AFF3046296C9B
:10164000FFF724FF281D00F043FB0122FFF73EFFB8
:1016500003F0D6FD03F0D4FDC2681AB1CA6B0A6468
:10166000002233E79AE700BF704700BF8368014656
:101670000BB1012018477047012912D009D873B95E
:101680000F2A0CD800EB820218465368009A1360A8
:1016900070470339012994BF0120022070470220BE
:1016A00070470846704700BF00B585B00A46002362
:1016B00003A900911946FFF7DFFF039805B05DF815
:1016C00004FB00BF012912D009D873B90F2A0CD826
:1016D00000EB8200009A1268426018467047033996
:1016E000012994BF0120022070470220704708465C
:1016F000704700BF10B584B0002303AC0392009480
:101700000A461946FFF7DEFF04B010BD70B5D36B73
:10171000136402F1040C05460C46BCE80F00ADF55D
:101720000E7D0DF15C0EAEE80F00BCE80F00AEE8D8
:101730000F00BCE80F00AEE80F009CE80F004FF070
:10174000FF368EE80F00169610E0FFF7D3FF214614
:1017500016A8A847034616AA6946082083B9049B21
:101760009847052806460CD0092809D026996846CE
:10177000FFF70AFE03466A460C2116A8002BE4D0A8
:10178000092616A8FFF74EFE30460DF50E7D70BDFA
:101790002DE9F04FCC6C89B01E4654F8043B0694FA
:1017A0000D46174600F00308002E79D01A0C1B04D2
:1017B00005938DF81D200223D2B204EB82048DF82C
:1017C0001C302B6DB8F1020F08BFAC6B13F0010396
:1017D0000CD005A9384600F07FFB18B9082009B0E5
:1017E000BDE8F08F092009B0BDE8F08FD4F800A063
:1017F000BAF1000FEDD0019300F008030293022E1E
:101800004AD0B4F800A0B4F802900434AB6C29F0CC
:10181000010B0F2138469B44FFF746FF834539D81B
:101820002AF001039B44834594BF002001204FEA26
:10183000490303F002030AF0010A43EA0A03012BF9
:1018400049D0022B32D0002BCCD1B8F1000F02D0FE
:10185000002840F0CD800434D4F800A0BAF1000F85
:10186000CDD105A9384600F037FB0028BAD1019B3D
:10187000002BB3D00F213846FFF716FF0E2102468A
:101880003846FFF737FF38466A4A0F21FFF732FF25
:101890000720A8E70020CAE7D4F804900834B5E789
:1018A0001B0205930323ADF81C308AE7236823F05D
:1018B000004BB8F1000F45D128B1029A002A5CD044
:1018C000BBF1000F74D0002B00DA04340BF1010BD4
:1018D00004EB8B04C0E7B8F1000F19D1B0B1636815
:1018E0002268991C4FEAD2723FF47CAF05F158018F
:1018F0000133049100F09080201DFFF7C1FD04AB7F
:101900000146284608F074FA00285BD10834A3E7A2
:101910000D213846D5F82090FFF7C6FE8145F5D158
:10192000AB6A9C42F2D12046FFF7E2FC0F2102464F
:101930003846FFF7DFFE38462A460021FFF7DAFE79
:10194000072050E70D213846D5F82090FFF7ACFE70
:10195000814501D02368B6E7AB6A9C42FAD10423E3
:101960000022C5E90B23E318C5F828B06B63236890
:10197000002B59DB01230193A8E705F15803CDF8AB
:101980000C8004F1040AB04691461E460EE0504613
:101990000496FFF775FD0022014604AB284609F1C5
:1019A00001090AF1040A08F023FAE0B9D945EED199
:1019B0000D213846FFF778FE049BAC62C5E90803A9
:1019C000062010E781460D213846FFF76DFEB9F17C
:1019D000020F286225D12B46049A43F82C2F6B6204
:1019E000AC620620FFE646462368DDF80C806AE715
:1019F0002046FFF77DFC04340246AC6328461446BB
:101A000008F056FA00283FF4EDAE384622460F2182
:101A1000FFF770FE0720E6E60D213846FFF744FE8B
:101A20002862049B6B62DBE70BF1010004EB800092
:101A30007AE700BF21A100080023A9E60123A7E659
:101A40000223A5E62DE9F0430646C3B015461C4621
:101A5000042900F2BF80DFE801F09E57BD2D03008E
:101A6000002C40F0B780102A00F2B4800368D8063A
:101A700000F1F98020AF384600F09CF9B46B39468C
:101A800000234FF0010C0CFA03F22A42204603F126
:101A9000010303D050F8042B0A600446042B01F123
:101AA0000401F0D13846B46300F07AF9002043B065
:101AB000BDE8F083032C40F08D8094B204EB124318
:101AC000102B4FEA124500F2858003681F0700F1D2
:101AD000D28020AF384600F041F9B26B07EBC50168
:101AE00054B10B46D01A01EBC401E4001D5843F871
:101AF000045B8B42FAD122443846B26300F00CF901
:101B0000002043B0BDE8F083012C4FEA124895B2A3
:101B10005CD0052C5ED108EB0509B9F1200F59D82E
:101B2000B8F10F0F79D9A946002D40F08A80B36B28
:101B30006DB320AF4FF0000907EBC807043F03EB7C
:101B4000C50553F8041B47F8041FAB42F9D1B9F19E
:101B5000000F0FD06F464146102938BF102107EB08
:101B6000C101843903EBC90553F8040B41F8040F94
:101B7000AB42F9D1012C00F08680B8F10F0FB563AC
:101B800047D9B9F1000F02D0684600F0BDF8002037
:101B900043B0BDE8F083ECB9806B23461FFA82FCAA
:101BA0000124371D04FA03F212EA0C0F014604D097
:101BB00051F8042B47F8232008460133102BF1D1AC
:101BC00015F40055E3D1B063284604E008EB0503A3
:101BD000102B03D9022043B0BDE8F083B8F10F0FFA
:101BE000F8D83368DA0706D5304623F0030340F807
:101BF000483B00F07DF820AF384600F079F8B36B31
:101C0000002D97D11D460435B563384600F06CF8B9
:101C1000BDE720A800F070F8B3E7B9F1100F40D984
:101C2000A9F110093368D90708D523F0010330461C
:101C300043F0020340F8483B00F062F8B9F1000FAE
:101C400032D033685A0720D4B8F10F0F25D96F4628
:101C50003846C8F1100500F05BF8002DB36B7FF734
:101C60007AAF20AF68E723F01003336006F5E87021
:101C700000F0A0F8FEE623F00803036000F5A8706A
:101C800000F06CF825E720AFBDE7304623F00403F1
:101C900040F8D03B00F03CF8D6E720A800F030F840
:101CA000D5E74FF00009BDE7B8F10F0F3FF63FAFA2
:101CB00020AF384600F024F8B36B002D7FF43AAF24
:101CC000384600F019F862E700000000000000004C
:101CD00000F1340191E838009C46A6464CF8045DBA
:101CE00090E8FF0FE54600BD90EC210B704700BF68
:101CF00080EC210B704700BF90EC200B704700BFB9
:101D000080EC200B704700BFD0EC200B704700BF69
:101D1000C0EC200B704700BFF0EC0201F0EC0211A8
:101D2000F0EC0221F0EC0231F0EC0241F0EC025157
:101D3000F0EC0261F0EC0271F0EC0281F0EC029147
:101D4000F0EC02A1F0EC02B1F0EC02C1F0EC02D137
:101D5000F0EC02E1F0EC02F1704700BFE0EC0201B0
:101D6000E0EC0211E0EC0221E0EC0231E0EC024197
:101D7000E0EC0251E0EC0261E0EC0271E0EC028187
:101D8000E0EC0291E0EC02A1E0EC02B1E0EC02C177
:101D9000E0EC02D1E0EC02E1E0EC02F1704700BFC0
:101DA000B0FC0181B0FC0191B0FC01A1B0FC01B11B
:101DB000704700BFA0FC0181A0FC0191A0FC01A123
:101DC000A0FC01B1704700BFEC4600B52DE9005002
:101DD0002DE9FF1F4FF000032DE90C0001A9FFF7CB
:101DE000DDFBDDF840E012B0704700BFEC4600B507
:101DF0002DE900502DE9FF1F4FF000032DE90C00E5
:101E000001A9FFF707FCDDF840E012B0704700BF02
:101E1000EC4600B52DE900502DE9FF1F4FF00003FF
:101E20002DE90C0001A9FFF717FCDDF840E012B026
:101E3000704700BFEC4600B52DE900502DE9FF1FAB
:101E40004FF000032DE90C0001ABFFF7DBFBDDF8E1
:101E500040E012B0704700BFEC4600B52DE90050DD
:101E60002DE9FF1F4FF000032DE90C0001AAFFF739
:101E70004DFCDDF840E012B0704700BF00000000EC
:101E8000027A03467AB9427AA2B14168013A10B4A3
:101E90004272086803220C1D1A7202025C60000E76
:101EA00010BC1A6070470068013A1A7202021A6088
:101EB000000E7047B020704700B585B0002303AA1C
:101EC000009219460C22FFF7D7FB039805B05DF886
:101ED00004FB00BFF0E700BF2DE9F043054685B0E5
:101EE0000E464FF000083046FFF7CAFFB028044600
:101EF00000F0BA80070620D500F0F003802B4DD00B
:101F0000902B36D0A02B60D0B02B74D0C02B00F01B
:101F10008B8000F0F803D02B0BD100F007020132C8
:101F2000052342F4002201212846FFF78BFD0028FB
:101F3000D9D0092005B0BDE8F0838300DBB21F1DB6
:101F40000DF10C0900231946CDF800900D2228460A
:101F5000FFF792FB039BCDF8009060064CBFDF1BA0
:101F6000FF1800230D22194628460397FFF7AAFB06
:101F7000B9E700F00D030D2BDBD003AF002300F019
:101F80000F02194600972846FFF776FB00230097BB
:101F90000D2219462846FFF795FBA4E73046FFF7C8
:101FA0006FFF24022043B0F5004FC2D0040100238C
:101FB000A2B219462846FFF745FD0028B9D114F40E
:101FC000004F18BF4FF001088DE7C24302F007032E
:101FD0004FF47F621A41010702F47F624FF0000361
:101FE00048BF42F4804219462846FFF72BFD0028DF
:101FF0003FF479AF9DE7B1283BD0B22800F0938041
:10200000B32841D000F0FC03B42B92D000F00702BB
:102010000132012342F4002219462846FFF712FD3F
:1020200000283FF460AF84E7C6284AD0C72854D0C0
:1020300000F0F803C02B63D0C82868D0C9287FF40B
:1020400078AF3046FFF71CFF020300F00F0002F4E8
:10205000702201300243012105232846FFF7F2FCDC
:1020600000283FF440AF64E7B8F1000F18D000201B
:1020700060E73046FFF704FF024600283FF459AFFF
:1020800010F0F003C8D054E73046FFF7F9FE020322
:1020900000F00F03013302F470221A430123BBE75F
:1020A00003AC43460E22414600942846FFF7E4FA6B
:1020B000009443460F2241462846FFF703FB404663
:1020C00038E73046FFF7DCFE020300F00F03013370
:1020D00002F470221A4303239EE73046FFF7D0FE36
:1020E000024600283FF425AF10F0F0037FF421AF43
:1020F00004212846FFF7A6FC00283FF4F4AE18E7B9
:1021000000F00F020132032342F4202284E730461C
:10211000FFF7B6FE00F0F00200F00F0310320133BB
:1021200043EA023297E700230DF10C090D2219460C
:10213000CDF800902846FFF79FFA3046FFF7A0FE43
:1021400002064FF002040CD5039B00F07F00A04074
:10215000184403903046FFF793FE030604F107048A
:10216000F2D4039BCDF8009000F07F02A24003F56B
:1021700001731A440023039219460D222846FFF7E3
:10218000A1FAB0E610B5C26C536884B04FF0030CEE
:1021900008321C0208461B0E01A9019402928DF818
:1021A0000CC08DF80D30FFF797FE04B010BD00BFD6
:1021B00008B5FFF78FFE806C08BD00BF08B5FFF7BC
:1021C00089FEC06CC379023300EB830008BD00BFF9
:1021D00080B485B000AFF860B9607A60002318461B
:1021E0001437BD4680BC70470000000000000000AE
:1021F00080B582B000AF7860786804F001FE00BF5F
:102200000837BD4680BD000000000000000000004F
:1022100080B483B000AF78600B46FB707B68FA78BF
:102220009A7300BF0C37BD4680BC704700000000A9
:1022300080B483B000AF78607B689B7B18460C3716
:10224000BD4680BC70470000000000000000000098
:1022500080B483B000AF78600B467B807B687A885F
:102260009A8100BF0C37BD4680BC7047000000005B
:1022700080B483B000AF78607B689B8918460C37C8
:10228000BD4680BC70470000000000000000000058
:1022900080B483B000AF786039607B683A685A6078
:1022A00000BF0C37BD4680BC704700000000000036
:1022B00080B483B000AF78607B685B6818460C37E9
:1022C000BD4680BC70470000000000000000000018
:1022D00080B483B000AF786039607B683A689A60F8
:1022E00000BF0C37BD4680BC7047000000000000F6
:1022F00080B483B000AF78607B689B6818460C3769
:10230000BD4680BC704700000000000000000000D7
:1023100080B485B000AFF860B9603B601346FB71D4
:102320000B4AFB681A60FB68BA685A60FB683A6837
:102330009A60FB6800229A81FB6800229A73FB680E
:10234000FA79DA73FB6818461437BD4680BC7047CB
:1023500058AD000800000000000000000000000070
:1023600080B483B000AF7860044A7B681A607B68F1
:1023700018460C37BD4680BC704700BF58AD0008FA
:1023800080B582B000AF78607868FFF7E9FF102170
:10239000786807F005FD7B6818460837BD4680BDA4
:1023A00080B483B000AF786039603A687B689A4245
:1023B00013D03B689A7B7B689A733B689A897B68E9
:1023C0009A813B685A687B685A603B689A687B6868
:1023D0009A603B68DA7B7B68DA7300BF0C37BD46D6
:1023E00080BC7047000000000000000000000000FA
:1023F00080B582B000AF78600B46FB701346BB70AF
:102400007B68FA781146184604F00AFDBB78002B69
:1024100003D00021786800F01BF87B681846083765
:10242000BD4680BD0000000000000000000000006C
:1024300080B483B000AF78607B6818460C37BD4627
:1024400080BC704700000000000000000000000099
:1024500080B582B000AF786039607B683A68114619
:10246000184604F0F5FC034618460837BD4680BD03
:1024700080B483B000AF7860074A7B681A607B68DD
:1024800000225A607B6800229A607B6818460C37ED
:10249000BD4680BC704700BFC8AD0008000000000A
:1024A00080B483B000AF78607B6800221A607B68DC
:1024B00000225A607B6818460C37BD4680BC7047C6
:1024C00080B584B000AF78607B685B68002B18D063
:1024D0000023FB607B681B68FA689A420CD27B6819
:1024E0005A68FB689B0013441B68184604F088FC7C
:1024F000FB680133FB60EDE77B685B68184604F01E
:102500007FFC7B6800221A6000BF1037BD4680BD8B
:1025100080B582B000AF78607B689B68002B07D0E5
:102520007B689B68184604F06BFC7B6800229A600D
:102530007B6800225A6000BF0837BD4680BD00009E
:1025400080B582B000AF786039607B68012B2ED1F6
:102550003B684FF6FF72934229D1174800F080F88C
:10256000164A17491448FFF733FE1648FFF780FF55
:10257000124A15491348FFF72BFE1448FFF778FF5E
:102580000E4A11491148FFF723FE1148FFF788FF53
:102590000A4A10490E48FFF71BFE002202210E488E
:1025A000FFF726FF054A0D490B48FFF711FE00BF54
:1025B0000837BD4680BD00BF980D0020000C0020EC
:1025C000A1260008AC0D0020E1250008B80D002070
:1025D000C40D002031260008CC0D00203124000855
:1025E00080B582B000AF7860054A7B681A60786871
:1025F000FFF78EFF7B6818460837BD4680BD00BFD9
:10260000C8AD00080000000000000000000000004D
:1026100080B582B000AF78607868FFF7E1FF0C21E9
:10262000786807F0BDFB7B6818460837BD4680BD5B
:1026300080B582B000AF78607868FFF741FF7B68B3
:1026400018460837BD4680BD0000000000000000AD
:1026500080B500AF4FF6FF710120FFF771FF80BD1D
:1026600080B582B000AF7860786800230022002136
:10267000FFF74EFE074A7B681A607B6800221A61EA
:102680007B6802211846FFF7E3FD7B681846083790
:10269000BD4680BD18AE000800000000000000002C
:1026A00080B582B000AF7860054A7B681A607B68AD
:1026B0001846FFF755FE7B6818460837BD4680BDB3
:1026C00018AE00080000000000000000000000003C
:1026D00080B582B000AF78607868FFF7E1FF142121
:1026E000786807F05DFB7B6818460837BD4680BDFB
:1026F000B0B582B000AF786039607B683A68114647
:102700001846FFF74DFE3B681A697B681A617D68C1
:102710007B681B6814331C683A683B681B68183375
:102720001B6810469847034619462846A04700BF35
:102730000837BD46B0BD00000000000000000000EA
:1027400080B483B000AF7860074A7B681A607B680A
:1027500000225A607B6800229A607B6818460C371A
:10276000BD4680BC704700BF88AE00080000000076
:1027700080B582B000AF78607B689B68002B07D083
:102780007B689B68184604F03BFB7B6800229A60DC
:102790007B6800225A6000BF0837BD4680BD00003C
:1027A00080B582B000AF786039607B68012B0CD1B6
:1027B0003B684FF6FF72934207D10648FFF7C0FF10
:1027C000054A06490348FFF703FD00BF0837BD4629
:1027D00080BD00BFD40D0020000C0020E1270008C0
:1027E00080B582B000AF7860054A7B681A6078686F
:1027F000FFF7BEFF7B6818460837BD4680BD00BFA7
:1028000088AE00080000000000000000000000008A
:1028100080B582B000AF78607868FFF7E1FF0C21E7
:10282000786807F0BDFA7B6818460837BD4680BD5A
:1028300080B500AF4FF6FF710120FFF7B1FF80BDFB
:1028400080B582B000AF786039603B680A2B03D155
:102850000D217868FFF7F4FF7B68002B03D07B68BD
:10286000386898470BE0084B1B68002B07D0064BD5
:102870001B685A1C04490A603A6852B21A7000BFB9
:102880000837BD4680BD00BFE00D002000000000FD
:1028900080B59CB000AFF860B9607A60BB685A1C24
:1028A000BA601B7887F8533097F95330002B00F04B
:1028B000048297F95330252B06D097F953301946E7
:1028C000F868FFF7BDFFF7E100233B663B6EFB6551
:1028D000202387F84B304FF0FF337B65BB685A1CD1
:1028E000BA601B7887F8533097F95330302B09D1F1
:1028F000302387F84B30BB685A1CBA601B7887F8C6
:1029000053300BE097F953302D2B07D10223FB6591
:10291000BB685A1CBA601B7887F8533097F953305C
:102920002A2B26D17B681A1D7A601B68BB65BB6D9C
:10293000002B04DABB6D5B42BB650223FB65BB6DFC
:102940003B66BB685A1CBA601B7887F8533018E0A6
:102950003A6E13469B0013445B001A4697F95330B6
:102960001344303B3B66BB685A1CBA601B7887F83F
:10297000533097F953302F2B03DD97F95330392B10
:10298000E6DD97F953302E2B31D1BB685A1CBA6063
:102990001B7887F8533097F953302A2B0BD17B687B
:1029A0001A1D7A601B687B65BB685A1CBA601B786D
:1029B00087F853301BE000237B6510E07A6D1346E7
:1029C0009B0013445B001A4697F953301344303B85
:1029D0007B65BB685A1CBA601B7887F8533097F93F
:1029E00053302F2B03DD97F95330392BE6DD97F960
:1029F00053306C2B09D1FB6D43F00403FB65BB68BE
:102A00005A1CBA601B7887F8533097F95330002B63
:102A100000F0558197F95330583B202B00F2A980E4
:102A200001A252F823F000BFC52A0008732B00084A
:102A3000732B0008732B0008732B0008732B0008FE
:102A4000732B0008732B0008732B0008732B0008EE
:102A5000AD2A0008CB2A0008B92A0008732B000809
:102A6000732B0008732B0008732B0008732B0008CE
:102A7000732B0008732B0008732B0008732B0008BE
:102A8000732B0008B32A0008BF2A0008732B000824
:102A9000732B0008DF2A0008732B0008B92A0008EE
:102AA000732B0008732B0008C52A00080223FB665D
:102AB00066E00823FB6663E00A23FB6660E0782398
:102AC00087F853301023FB665AE07B681A1D7A6042
:102AD0001B685BB21946F868FFF7B2FEECE07B6852
:102AE0001A1D7A601B68FB64FB6C002B01D1764BCE
:102AF000FB64F86C04F094FE78667B6D002B0FDBB2
:102B00007B6D7A6E9A420BD97B6D7B6608E097F9F4
:102B10004B301946F868FFF793FE7B6E01337B66F6
:102B2000FB6D03F00203002B0DD17A6E3B6E9A42CF
:102B3000EDD308E0FB6C5A1CFA6493F90030194697
:102B4000F868FFF77DFEFB6C93F90030002B09D08D
:102B50007B6D5A1E7A65002BECD103E02021F868CA
:102B6000FFF76EFE7B6E5A1C7A663A6E9A42F5D873
:102B7000A2E097F953301946F868FFF761FE9BE031
:102B8000FB6D03F00403002B05D07B681A1D7A60EF
:102B90001B687B640DE097F95330642B04D17B688C
:102BA0001A1D7A601B6803E07B681A1D7A601B6837
:102BB0007B6497F95330642B09D17B6C002B06DAC8
:102BC0007B6C5B427B64FB6D43F00103FB65002380
:102BD000BB667B6C3B643B6CFA6EB3FBF2F2F96E46
:102BE00001FB02F29B1A87F852303A6CFB6EB2FB83
:102BF000F3F33B6497F95230092B0CDD97F953300E
:102C0000782B01D1272200E0072297F85230134495
:102C1000DBB287F8523097F852303033D9B2BB6EFE
:102C20005A1CBA664AB207F170010B4403F8602CD3
:102C30003B6C002B02D0BB6E2F2BCCD9FB6D03F06D
:102C40000103002B08D0BB6E5A1CBA6607F1700254
:102C500013442D2203F8602CBB6E7B6608E097F9C5
:102C60004B301946F868FFF7EBFD7B6E01337B664E
:102C7000FB6D03F00203002B03D17A6E3B6E9A4288
:102C8000EDD3BB6E013BBB6607F11002BB6E134474
:102C900093F900301946F868FFF7D2FDBB6E002BA0
:102CA000EFD103E02021F868FFF7CAFD7B6E5A1CC4
:102CB0007A663A6E9A42F5D8F0E500BF00E000BFB0
:102CC00000BF7037BD4680BDF0A1000800000000C5
:102CD0000EB480B585B000AF786007F12003FB60CB
:102CE000FA68F9697868FFF7D3FD00BF1437BD466D
:102CF000BDE8804003B07047000000000000000005
:102D0000EFF3098070470023184600000000000020
:102D100080B483B000AF0346FB80FB889B099BB265
:102D200003F1804303F504331968FB8803F01F03A4
:102D300001229A40FB889B099BB203F1804303F573
:102D40000433184641EA0203036000BF0C37BD4656
:102D500080BC704700000000000000000000000080
:102D600080B485B000AF78602C4B1B68FB60FB68BB
:102D700023F0805323F44043FB60294B1B68BB6066
:102D8000BB6823F00053BB607B680B2B3AD801A2D1
:102D900052F823F0C52D0008C52D0008C52D0008E8
:102DA000C52D0008052E0008D12D0008052E0008AD
:102DB000D12D0008E92D0008E92D0008E92D0008B3
:102DC000E92D00087B689B03FA681343FB601AE057
:102DD0007B6823F004037B607B689A03FB681343E2
:102DE00043F08053FB600EE07B6823F00C037B60B4
:102DF0007B689B03FA681343FB60BB6843F0005396
:102E0000BB6000E000BF054AFB681360044ABB6872
:102E1000136000BF1437BD4680BC704704100240E9
:102E20002C10024000000000000000000000000024
:102E300090B498B000AF0346FB710023FB656E4B66
:102E400007F11C040FCB84E80F006C4A07F1140350
:102E500092E8030083E80300684A07F10C0392E854
:102E6000030083E80300664B1B689B0803F0030321
:102E7000FB64FB6C022B0FD0FB6C022B63D8FB6C4A
:102E8000002B03D0FB6C012B03D05CE05D4BBB65DA
:102E90005CE05D4BBB6559E0594B1B6803F4803324
:102EA000BB64BB6CB3F5803F18D1584B1B6803F073
:102EB00080437B647B6C002B02D1534B3B6501E06C
:102EC000534B3B654E4B1B6803F400333B643B6C38
:102ED000B3F5003F04D14F4B3B6501E04E4B3B65E2
:102EE000474B1B689B0C03F00F037B65444B1B682F
:102EF00003F00063002B03D07B6D43F010037B6570
:102F00003F4B1B6803F08043002B03D07B6D43F0E5
:102F100020037B657B6D0E2B03D87B6D02337B65B5
:102F20000BE07B6D0E2B06D97B6D3E2B03D87B6DA2
:102F300001337B6501E03F237B653B6D7A6D02FBCE
:102F400003F3BB6502E02F4BBB6500BF2C4B1B6836
:102F50001B0903F00F03FB6307F11C02FB6B134417
:102F60001B78BB63BA6DBB6B22FA03F37B63244B04
:102F70001B681B0A03F00703FB6307F11402FB6BDA
:102F800013441B78BB637A6BBB6B22FA03F33B637E
:102F90001B4B1B68DB0A03F00703FB6307F10C0202
:102FA000FB6B13441B78BB637A6BBB6B22FA03F396
:102FB000FB62FB79032B17D801A252F823F000BF64
:102FC000D12F0008D72F0008DD2F0008E32F0008BD
:102FD000BB6DFB6509E07B6BFB6506E03B6BFB654E
:102FE00003E0FB6AFB6500E000BFFB6D184660373D
:102FF000BD4690BC704700BF00A2000810A20008A8
:103000000410024000127A00105E5F002C10024093
:10301000006CDC0208AF2F0000093D00000000003A
:1030200080B586B000AF7860396000237B610023F3
:103030003B610023FB600023BB607B682B4A93420B
:103040001CD07B68294A934231D87B68284A934236
:1030500028D07B68264A934229D87B68254A934228
:103060001BD07B68234A934221D87B68224A934233
:1030700009D07B68214A93420AD018E00320FFF769
:10308000D7FE786114E00220FFF7D2FE78610FE0EE
:103090000220FFF7CDFE78610AE00220FFF7C8FEAC
:1030A000786105E00220FFF7C3FE786100E000BF11
:1030B0003B685A087B691A443B68B2FBF3F3BB6078
:1030C000BA684FF6F07313403B61BB6803F00F031F
:1030D000FB603A69FB6842EA03017B6808331A46E1
:1030E0008BB2136000BF1837BD4680BD0038014069
:1030F00000500040004C00400044004000480040A8
:1031000080B483B000AF786039607B680C331B6893
:103110007A680C3223F4C06313607B680C331A683E
:103120007B680C3319463B6813430B6000BF0C37B8
:10313000BD4680BC70470000000000000000000099
:1031400080B483B000AF786039607B680C331B6853
:103150007A680C3223F4805313607B680C331A684E
:103160007B680C3319463B6813430B6000BF0C3778
:10317000BD4680BC70470000000000000000000059
:1031800080B483B000AF786039607B6810331B680F
:103190007A68103223F4405313607B6810331A6846
:1031A0007B68103319463B6813430B6000BF0C3734
:1031B000BD4680BC70470000000000000000000019
:1031C00080B483B000AF78607B680C331B687A688A
:1031D0000C3243F40053136000BF0C37BD4680BC73
:1031E0007047000000000000000000000000000028
:1031F00080B483B000AF78607B680C331B687A685A
:103200000C3223F40053136000BF0C37BD4680BC62
:1032100070470000000000000000000000000000F7
:1032200080B485B000AF786039600023FB607B68B4
:103230000C331B68FB60FB6823F00803FB60FA6833
:103240003B681343FB607B680C331A46FB681360D2
:1032500000BF1437BD4680BC70470000000000006E
:1032600080B485B000AF786039600023FB607B6874
:103270000C331B68FB60FB6823F00403FB60FA68F7
:103280003B681343FB607B680C331A46FB68136092
:1032900000BF1437BD4680BC70470000000000002E
:1032A00080B483B000AF786039607B6804331A461D
:1032B0003B68C3F30803136000BF0C37BD4680BCF6
:1032C0007047000000000000000000000000000047
:1032D00080B483B000AF78607B6804331B689BB216
:1032E000C3F308039BB218460C37BD4680BC704739
:1032F00080B485B000AF786039600023FB607B68E4
:1033000014331B68FB60FB6823F48073FB60FA686E
:103310003B681343FB607B6814331A46FB681360F9
:1033200000BF1437BD4680BC70470000000000009D
:1033300080B485B000AF786039600023FB607B68A3
:1033400014331B68FB60FB6823F40073FB60FA68AE
:103350003B681343FB607B6814331A46FB681360B9
:1033600000BF1437BD4680BC70470000000000005D
:1033700080B400AF034B00221A6000BFBD4680BC82
:10338000704700BF042004E00000000000000000BF
:1033900080B483B000AF0346FB80FB889B099BB2DF
:1033A00003F1604303F584231968FB8803F01F03CE
:1033B00001229A40FB889B099BB203F1604303F50D
:1033C0008423184641EA0203036000BF0C37BD4660
:1033D00080BC7047000000000000000000000000FA
:1033E00080B483B000AF78607B68002B06D1094BB6
:1033F0001B68084A43F00103136005E0054B1B6896
:10340000044A43F48033136000BF0C37BD4680BCD0
:10341000704700BF00740040000000000000000082
:1034200080B485B000AFF860B9601346FB80FB68DC
:10343000002B18D1BB68022B11D0BB68022B2BD8F4
:10344000BB68002B03D0BB68012B04D024E0164AD4
:10345000FB88136023E0154AFB8813601FE0144AC1
:10346000FB8813601BE0BB68022B11D0BB68022BEA
:1034700014D8BB68002B03D0BB68012B04D00DE02F
:103480000C4AFB8813600AE00B4AFB88136006E0D5
:103490000A4AFB88136002E000BF00E000BF00BFE3
:1034A0001437BD4680BC7047087400400C7400405F
:1034B0001074004014740040187400401C740040E4
:1034C00080B489B000AFF860B9607A603B600023D7
:1034D000BB6100237B61BB6803F00F03BB61BB686A
:1034E00003F01003002B14D07B68042B0DD1BB69B3
:1034F00043F00303BB61FB683C331A68FB683C3351
:1035000019463B6813430B6003E0BA697B681343B9
:10351000BB610023FB8339E0FB8B01229A403B68AF
:103520001340002B2FD0FB681B687B61FB8B9B003B
:103530000F2202FA03F3DB437A6913407B61FB8BB2
:103540009B00BA6902FA03F37A6913437B61BB6893
:10355000282B09D1FB8B01229A40FB6814331946B2
:103560003B6813400B600BE0BB68482B08D1FB8B1A
:1035700001229A40FB68103319463B6813400B60E8
:10358000FB687A691A60FB8B0133FB83FB8B072B8B
:10359000C2D90823FB833EE0FB8B01229A403B68A3
:1035A0001340002B34D0FB6804331B687B61FB8B1A
:1035B000083B9B000F2202FA03F3DB437A691340B6
:1035C0007B61FB8B083B9B00BA6902FA03F37A69C3
:1035D00013437B61BB68282B09D1FB8B01229A40E6
:1035E000FB68143319463B6813400B600BE0BB6863
:1035F000482B08D1FB8B01229A40FB6810331946F7
:103600003B6813400B60FB6804331A467B69136008
:10361000FB8B0133FB83FB8B0F2BBDD900BF00BF9E
:103620002437BD4680BC7047000000000000000049
:1036300080B483B000AF786039607B6810331A467D
:103640003B68136000BF0C37BD4680BC704700006C
:1036500080B483B000AF786039607B6814331A4659
:103660003B68136000BF0C37BD4680BC704700004C
:1036700080B483B000AF78600B46FB701346BB701C
:10368000344B1A687B68DB43324913400B60324B82
:103690001A687B68DB43304913400B602F4B1A6874
:1036A0007B68DB432D4913400B602D4B1A687B6808
:1036B000DB432B4913400B60FB78002B02D0012B1E
:1036C00007D00DE0234B1A6822497B6813430B6037
:1036D00006E0214B1A6820497B6813430B6000BF4A
:1036E000BB78022B22D0022B2DDC002B02D0012B29
:1036F0000ED028E0194B1A6818497B6813430B60F9
:10370000174B1A687B68DB43154913400B601BE0BD
:10371000124B1A687B68DB43104913400B60104B57
:103720001A680F497B6813430B600DE00B4B1A6856
:103730000A497B6813430B60094B1A6808497B6888
:1037400013430B6000E000BF00BF0C37BD4680BCD8
:10375000704700BF00040140040401400804014018
:103760000C04014000000000000000000000000008
:1037700080B483B000AF7860054B1A6804497B6859
:1037800013430B6000BF0C37BD4680BC704700BFC1
:1037900000040140000000000000000000000000E4
:1037A00080B483B000AF03463960FB7197F90730EE
:1037B000002B0BDA3B68DAB20C49FB7903F00F03FC
:1037C000043B1201D2B20B441A7609E03B68DAB22C
:1037D000074997F907301201D2B20B4483F800234E
:1037E00000BF0C37BD4680BC704700BF00ED00E055
:1037F00000E100E000000000000000000000000008
:1038000000B5F0B42DE9000F064B5B68DBB2103B4E
:10381000DBB25BB2184601F09BFDBDE8000FF0BCC7
:1038200000BD00BF00ED00E000000000000000004F
:1038300080B400AF00BFBD4680BC704700000000F0
:1038400080B400AF00BFBD4680BC704700000000E0
:1038500080B400AF044B5B68034A43F0805353606D
:1038600000BFBD4680BC704700ED00E000000000D6
:1038700080B582B000AF00F04BF903460C4AA2FBC2
:1038800003239B097B607B6823F07F43094A013B4C
:10389000536000214FF0FF30FFF782FF054B0022FD
:1038A0009A60044B07221A6000BF0837BD4680BDEE
:1038B000D34D621010E000E00000000000000000A6
:1038C00080B500AFFFF754FD4FF48470FFF760FD43
:1038D00040F20910FFF75CFD4FF48570FFF758FDCB
:1038E00040F20B10FFF754FD4FF48670FFF750FDC8
:1038F00040F20D10FFF74CFD4FF48970FFF748FDC3
:1039000040F21310FFF744FD4FF48A70FFF740FDBB
:1039100040F21110FFF73CFD4FF48E70FFF738FDB9
:1039200040F21D10FFF734FD4FF48F70FFF730FDAC
:1039300040F21910FFF72CFD4FF48D70FFF728FDB2
:1039400040F21B10FFF724FD00BF80BD0000000007
:1039500080B500AF00F074FB00F062FC00BF80BDDA
:1039600080B582B000AF7860FFF7F2FF00F010F88A
:10397000FFF77EFFFFF7A4FF00BF0837BD4680BDFD
:1039800062B6704700BF00000000000000000000A9
:10399000EFF3108080F0010072B6704700BF184648
:1039A000002801D062B600E072B6704700BF000088
:1039B00080B485B000AF78607B681F2B0DD81D4B9D
:1039C0001B6801217A6801FA02F21340002B14BF30
:1039D00001230023DBB2FB6025E07B683F2B11D87D
:1039E0007B681F2B0ED9134B5B687A68203A012144
:1039F00001FA02F21340002B14BF01230023DBB2B3
:103A0000FB6010E07B683F2B0DD90A4B9B687A68FE
:103A1000403A012101FA02F21340002B14BF0123A6
:103A20000023DBB2FB60FB6818461437BD4680BC40
:103A3000704700BF00E100E000000000000000004F
:103A400080B584B000AF78607868FFF7B1FFF860A8
:103A50007B681F2B05D801227B689A400E4B1A60A9
:103A600015E07B683F2B09D87B681F2B06D97B6844
:103A7000203B01229A40084B5A6008E07B683F2BAC
:103A800005D97B68403B01229A40034B9A60FB6852
:103A900018461037BD4680BD00E100E00000000080
:103AA00080B584B000AF78607868FFF781FFF86078
:103AB0007B681F2B06D801227B689A40104BC3F805
:103AC000802017E07B683F2B0AD87B681F2B07D923
:103AD0007B68203B01229A40094BC3F8842009E00F
:103AE0007B683F2B06D97B68403B01229A40044B00
:103AF000C3F88820FB6818461037BD4680BD00BF5C
:103B000000E100E0000000000000000000000000F4
:103B100080B400AF024B1B681846BD4680BC70479E
:103B2000F40C002000000000000000000000000075
:103B300080B400AFBFF34F8F00BF034B034ADA607E
:103B4000BFF34F8F00BFFEE700ED00E00400FA0571
:103B500080B483B000AF78600B467B807B68103305
:103B60001A467B88136000BF0C37BD4680BC704787
:103B700080B483B000AF78600B467B807B881A04EA
:103B80007B6810331A6000BF0C37BD4680BC70479D
:103B900080B582B000AF78600B467B807B88194689
:103BA000786800F015F80346002B05D07B8819468D
:103BB0007868FFF7DDFF04E07B8819467868FFF737
:103BC000C7FF00BF0837BD4680BD000000000000F1
:103BD00080B483B000AF78600B467B807B6808338D
:103BE0001B689AB27B8813409BB218460C37BD46BF
:103BF00080BC7047000000000000000000000000D2
:103C000080B584B000AF7860786800F019F8F8608B
:103C10007B68BB60BB681B680C331B68BA681268A2
:103C20000C3223F020031360FB6818461037BD46A2
:103C300080BD000000000000000000000000000047
:103C400080B485B000AF78607B68FB60FB681B6860
:103C50000C331B6803F02003002B14BF0123002347
:103C6000DBB2BB60BB6818461437BD4680BC7047EA
:103C700080B584B000AF786039604FF0FF33FB60EF
:103C80007B68BB603B68002B02D1BB6808333B609C
:103C9000BB681B681846FFF7ABFA3B68002B00F0C7
:103CA000B8803B681B79092B06D0BB681B680021D4
:103CB0001846FFF745FA07E0BB681B684FF48051D0
:103CC0001846FFF73DFA00BF3B685B79032B1DD018
:103CD000032B0CDC002B02D0022B0FD007E0BB68BB
:103CE0001B684FF480511846FFF74AFA16E0BB688C
:103CF0001B6800211846FFF743FA0FE0BB681B68FA
:103D00004FF440511846FFF73BFA07E0BB681B68C9
:103D10004FF400511846FFF733FA00BF3B689B7918
:103D2000012B10D0022B06D0BB681B68002118465F
:103D3000FFF7E6F90FE0BB681B684FF4C061184657
:103D4000FFF7DEF907E0BB681B684FF48061184697
:103D5000FFF7D6F900BF3B68DB79032B16D0032BA6
:103D600023DC012B02D0022B08D01EE0BB681B68AD
:103D70004FF480711846FFF7BBFA17E0BB681B6869
:103D80004FF400711846FFF7D3FA0FE0BB681B68C9
:103D90004FF480711846FFF7ABFABB681B684FF40D
:103DA00000711846FFF7C4FA00E000BFBB681A684C
:103DB0003B681B6819461046FFF732F9BB681B6861
:103DC00008211846FFF72CFABB681B680421184627
:103DD000FFF746FABB681B681846FFF7F1F9BB68A6
:103DE00093F90430BA680D49184601F089FABB68A6
:103DF00093F904301846FFF723FEBB681B680C33A9
:103E00001B68BA6812680C3243F020031360002369
:103E1000FB60FB6818461037BD4680BD5151000855
:103E200080B483B000AF78607B6818460C37BD461D
:103E300080BC70470000000000000000000000008F
:103E400080B485B000AF786039607B68FB60FB6848
:103E50003A681A623B6818461437BD4680BC704702
:103E600080B485B000AF786039607B68FB60FB6828
:103E70003A685A623B6818461437BD4680BC7047A2
:103E800080B485B000AF78607B68FB60FB681B6A1C
:103E900018461437BD4680BC704700000000000083
:103EA00080B485B000AF78607B68FB60FB685B6ABC
:103EB00018461437BD4680BC704700000000000063
:103EC00080B485B000AF78607B68FB60FB6893F9D5
:103ED000043018461437BD4680BC7047000000000F
:103EE00080B485B000AF78607B68FB60FB68DB69FD
:103EF00018461437BD4680BC704700000000000023
:103F000080B485B000AF78607B68FB60FB681B689D
:103F10001B6803F04003002B01D0002300E00123C5
:103F200018461437BD4680BC7047000000000000F2
:103F300080B485B000AF78607B68FB60FB681B686D
:103F40001B6803F08003002B14BF01230023FB72C6
:103F5000FB7A18461437BD4680BC7047000000004D
:103F600080B485B000AF78607B68FB60FB681B683D
:103F70001B6803F02003002B14BF01230023FB72F6
:103F8000FB7A18461437BD4680BC7047000000001D
:103F900080B584B000AF786039607B68FB60FB68F7
:103FA0001B683A6811461846FFF77AF93B681846CD
:103FB0001037BD4680BD000000000000000000007A
:103FC00080B584B000AF78607B68FB60FB681B68DD
:103FD0001846FFF77DF9034618461037BD4680BDE9
:103FE00080B485B000AF78607B68FB60FB681B68BD
:103FF0000C331B68FA6812680C3243F080031360BC
:1040000000BF1437BD4680BC7047000000000000B0
:1040100080B485B000AF78607B68FB60FB681B688C
:104020000C331B68FA6812680C3223F080031360AB
:1040300000BF1437BD4680BC704700000000000080
:1040400080B582B000AF1A4B1B68194A43F00103D8
:104050001360184B1B68174A43F08003136000235A
:104060007B6002E07B6801337B607B6844F61F6203
:104070009342F7D90F4B00221A600F4B00221A60AF
:104080000B4B1B680A4A23F0847323F480331360BC
:104090000A4B4FF41F021A60054B1B68044A23F4B5
:1040A0008023136000F00CF800BF0837BD4680BDC8
:1040B00000100240041002402C1002400810024080
:1040C00080B500AF00F004F800BF80BD0000000024
:1040D00080B483B000AF00237B6000233B60494B7A
:1040E0001B68484A43F4803313607B6801337B606C
:1040F000444B1B6803F400333B603B68002B04D146
:104100007B684FF6FF729342EFD13E4B1B6803F47E
:104110000033002B00D1FEE73B4B1B683A4A43F0CB
:1041200080531360394B1B68384A43F44043136093
:10413000374B374A1B681360354B354A1B68136091
:10414000334B1B68324A43F480631360304B1B6867
:104150002F4A23F4403313602D4B1B682C4A43F441
:10416000403313602A4B1B68294A23F0904323F401
:1041700070131360264B1B68254A43F0036343F416
:10418000802313601F4B1B681E4A43F0807313602B
:1041900000BF1C4B1B6803F00073002BF9D01B4BB6
:1041A0001B681A4A43F48033136000BF194B1B6825
:1041B00003F48033002BF9D0144B1B68134A43F4EB
:1041C0000033136000BF134B1B6803F40033002B54
:1041D000F9D00F4B1B680E4A23F0030313600C4BFE
:1041E0001B680B4A43F00203136000BF084B1B68B7
:1041F00003F00803002BF9D000BF00BF0C37BD4609
:1042000080BC7047001002401C100240007000404B
:104210000410024004700040000000000000000094
:1042200080B487B000AF3C4B1B689B0803F00303CE
:10423000FB60FB68022B11D0FB68022B62D8FB6885
:10424000002B03D0FB68012B04D05BE0334B344AD6
:104250001A605BE0314B334A1A6057E02E4B1B6803
:1042600003F48033BB60BB68B3F5803F18D12E4B9D
:104270001B6803F080437B607B68002B02D1294BD5
:104280003B6101E0294B3B61234B1B6803F4003386
:104290003B603B68B3F5003F04D1254B3B6101E037
:1042A000244B3B611C4B1B689B0C03F00F037B6191
:1042B000194B1B6803F00063002B03D07B6943F0AC
:1042C00010037B61144B1B6803F08043002B03D069
:1042D0007B6943F020037B617B690E2B03D97B69EB
:1042E00001337B6102E07B6902337B617B693D2B9B
:1042F00001D93F237B613B697A6902FB03F3074ADB
:10430000136003E0054B064A1A6000BF00BF1C376C
:10431000BD4680BC704700BF04100240F40C002072
:1043200000127A00105E5F002C100240006CDC026C
:1043300008AF2F0000093D00000000000000000051
:1043400080B500AF00F034F800F03AFA00F0A8F9B8
:1043500000BF80BD00000000000000000000000061
:1043600080B500AF00F04CFB00F08AF800F0C8FB0D
:1043700000BF80BD00000000000000000000000041
:1043800080B400AF00BFBD4680BC70470000000095
:1043900080B500AF044B9A69044B1B689A4201D068
:1043A00000F0DEFB00BF80BD14100020E40D0020F3
:1043B00080B500AF00F004F800BF80BD0000000031
:1043C00080B500AF0720FEF7CBFC4FF4C060FEF7CE
:1043D0009FFC4FF4A060FEF79BFC40F20150FEF7FB
:1043E00097FC40F20260FEF793FC40F20360FEF798
:1043F0008FFC40F20460FEF78BFC40F20560FEF794
:1044000087FC40F20660FEF783FC40F21D70FEF769
:104410007FFC40F20E60FEF77BFC40F21170FEF76D
:1044200077FC40F21370FEF773FC40F20960FEF770
:104430006FFC4FF4C060FEF76BFC40F21C70FEF79F
:1044400067FC40F20650FEF763FC40F20B70FEF78B
:104450005FFC40F20C60FEF75BFC40F20E70FEF772
:1044600057FC40F20F70FEF753FC40F20B60FEF772
:104470004FFC4FF4E060FEF74BFC00BF80BD000036
:1044800080B500AF012200214FF48070FFF7F0F8F3
:104490004FF48070FFF76CF900BF80BD0000000092
:1044A00080B584B002AF78607B681B684D4A1360AA
:1044B0007B685B684B4A53607B689B68494A9360A2
:1044C0007B68DB68474AD3607B681B69454A136198
:1044D0007B685B69434A53617B689B69414A93618E
:1044E0007B68DB693F4AD3613F4B1B683D4A1362DF
:1044F0003E4B1B683B4A53623D4B1B68394A9362F3
:104500003C4B1B68374AD3623B4B1B68354A5363AD
:104510003A4B1B68334A136339493A48FEF7D8FBD4
:10452000394B5A68384B5B689B6938493548FEF708
:10453000CFFBFEF7E5FB0146334B5B681A69324B54
:104540005B68DB68009313460A4631492D48FEF745
:10455000BFFB30492B48FEF7BBFB224B5B691A4679
:104560002D492848FEF7B4FB1E4B9B691A462B4980
:104570002448FEF7ADFB1B4B1B691A46284921480E
:10458000FEF7A6FB174B1B6A1A4626491D48FEF785
:104590009FFB144B5B6A1A4623491A48FEF798FBA7
:1045A000104B9B6A1A4621491648FEF791FB0D4BAA
:1045B000DB6A1A461E491348FEF78AFB094B5B6B00
:1045C0001A461C490F48FEF783FB064B1B6B1A4625
:1045D00019490C48FEF77CFB00BE00BF0837BD46FA
:1045E00080BD00BFE80D002028ED00E02CED00E0CC
:1045F00030ED00E03CED00E034ED00E038ED00E0AF
:1046000020A20008D1490008141000202CA20008A4
:1046100048A2000874A2000880A2000894A2000822
:10462000A8A20008BCA20008D0A20008E4A20008CA
:10463000F8A200080CA3000820A300080000000056
:1046400004207146084203D0EFF30980FFF728BF2A
:10465000EFF30880FFF724BFFFF7F2BF00BF0000B1
:1046600080B582B000AF7860FFF762FA00BF08370C
:10467000BD4680BD000000000000000000000000FA
:1046800080B582B000AF7860FFF752FA00BF0837FC
:10469000BD4680BD000000000000000000000000DA
:1046A00080B500AF384B1B68374A928811461846D0
:1046B000FFF74EFA354B1B68344A9288114618466C
:1046C000FFF746FA324B1B68314A9288114618466A
:1046D000FFF73EFA2F4B1B682E4A92881146184668
:1046E000FFF736FA2C4B1B682B4A92881146184666
:1046F000FFF73EFA294B1B68284A92881146184654
:10470000FFF726FA264B1B68254A92881146184661
:10471000FFF71EFA234B1B68224A9288114618465F
:10472000FFF726FA204B1B681F4A9288114618464D
:10473000FFF70EFA1D4B1B681C4A9288114618465B
:10474000FFF716FA1A4B1B68194A92881146184649
:10475000FFF70EFA174B1B68164A92881146184647
:10476000FFF706FA144B1B68134A92881146184645
:10477000FFF7FEF9084B1B68074A92881146184656
:10478000FFF7E6F900BF80BD380D0020400D002086
:10479000480D0020500D0020300D0020200D00207D
:1047A000180D0020000D0020F80C0020080D00203E
:1047B000100D0020580D0020600D002000000000AA
:1047C00080B500AF0223022210217C48FEF778FE5C
:1047D00002217A48FEF73CFF042302221821774881
:1047E000FEF76EFE0823022204217448FEF768FEDD
:1047F0001023022210217148FEF762FE10216F483B
:10480000FEF716FF2023032218216C48FEF758FEFE
:104810004023032204216948FEF752FE802303222D
:1048200018216648FEF74CFE4FF4807302221021D7
:104830006248FEF745FE4FF480716048FEF7F8FECF
:104840000123022200215E48FEF73AFE04230222E1
:1048500048215B48FEF734FE04215948FEF7E8FE84
:104860000823012210215648FEF72AFE10230122B8
:1048700048215348FEF724FE2023012210215048EE
:10488000FEF71EFE8023022210214D48FEF718FE7F
:1048900080214B48FEF7CCFE4FF48073022210219A
:1048A0004748FEF70DFE4FF480714548FEF7C0FE05
:1048B0004FF40073022210214148FEF701FE4FF42D
:1048C00000713F48FEF7C4FE4FF4806302221821B6
:1048D0003B48FEF7F5FD4FF40063022204213848FF
:1048E000FEF7EEFD4FF48053022210213448FEF70C
:1048F000E7FD4FF480513248FEF79AFE4FF4005323
:10490000032218212E48FEF7DBFD4FF480430322DB
:1049100004212B48FEF7D4FD4FF400430322182155
:104920002748FEF7CDFD0423022200212548FEF78B
:10493000C7FD2023022210212248FEF7C1FD2021BD
:104940002048FEF785FE4023022214211D48FEF771
:10495000B7FD40211B48FEF77BFE4FF48073022217
:1049600048211848FEF7ACFD4FF40073022248219D
:104970001448FEF7A5FD4FF4806303221821114867
:10498000FEF79EFD4FF40063032204210D48FEF75D
:1049900097FD4FF48043022210210A48FEF790FD54
:1049A0004FF480410748FEF743FE4FF400430222D4
:1049B00048210448FEF784FD00BF80BD0008014087
:1049C000000C014000100140000000000000000049
:1049D00080B582B000AF786001E000F051FE7968E8
:1049E000032000F025FB0346002BF6DB00BF00BFD1
:1049F0000837BD4680BD0000000000000000000038
:104A000080B586B000AF3B1D184600F0A9F94FF401
:104A1000E1337B6008233B7201237B720023BB726E
:104A20003B1D1946032000F0E3F80346002B47DB4B
:104A3000284B294A1A60274B1B68284A1360274BCA
:104A40001B68274A13603B1D184600F089F94FF494
:104A5000E1337B6008233B7201237B720023BB722E
:104A60003B1D1946012000F0C3F80346002B21DB53
:104A70001C4B1D4A1A603B1D184600F071F94FF49B
:104A8000E1337B6008233B7201237B720023BB72FE
:104A90003B1D1946022000F0ABF80346002B03DB58
:104AA000124B134A1A6010E0022212491248FEF714
:104AB0000FF90AE001220F490F48FEF709F904E057
:104AC00003220C490C48FEF703F900BF1837BD4616
:104AD00080BD00BF7810002028AF000870100020B3
:104AE00074100020200E0020F8AE0008240E0020D4
:104AF00010AF000840A30008D149000800000000E2
:104B000080B500AF0020FEF76BFC0120FEF768FCCB
:104B10000021002000F00CF80021012000F008F82E
:104B200000BF80BD00000000000000000000000089
:104B300080B582B000AF03460A46FB711346BB80C6
:104B4000BB88C3F30B03BB80FB79BA8800211846EE
:104B5000FEF766FC00BF0837BD4680BD00000000C0
:104B6000104A38B513689BB213B1013B9BB2136076
:104B70000D4A13689BB213B1013B9BB213600B4DFE
:104B80000B4B2C7899881868E4B2FFF721F828B10C
:104B900024F0040444F003042C7038BD04F0F9043C
:104BA000FAE700BF280E00202C0E0020680D002020
:104BB000280D0020000000000000000000000000A0
:104BC00080B485B000AF78607A6813465B00134408
:104BD000DB00064A1344FB60FB681B68BB60BB68D4
:104BE00018461437BD4680BC704700BFE0AE0008D1
:104BF00080B586B000AF78603960354B00221A600E
:104C00007B687B617B69002B5DDB7A6913465B0007
:104C10001344DB002F4A13443B613B691B68FB6074
:104C2000F868FFF72DF90346002B11D100F0E8F8E2
:104C300003469BB2184601F003F903461946F8688B
:104C4000FFF7FEF80346002B02D1214B0C221A601D
:104C5000F868FFF725F90346002B11D100F0C8F8DA
:104C600003469BB2184601F0EBF803461946F86874
:104C7000FFF7F6F80346002B02D1154B0C221A6001
:104C80003B68002B0FD03968786900F099F803462B
:104C9000002B08DA786900F023F80D4B0E221A6019
:104CA0004FF0FF337B617869FFF7BAF802467B6902
:104CB000934208D0786900F013F8054B0E221A6071
:104CC0004FF0FF337B617B6918461837BD4680BDC6
:104CD00048100020E0AE00080000000000000000C6
:104CE00080B586B000AF786000237B61194B00224D
:104CF0001A607A6813465B001344DB00164A1344BB
:104D00003B613B691B68FB60F868FEF779FFF86858
:104D1000FFF7D6F803461846FEF7C2FEF868FFF71D
:104D2000AFF80346184601F0BBF8F868FFF7B8F88B
:104D30000346184601F0B4F80021F868FFF780F840
:104D40000021F868FFF78CF87B6918461837BD46D4
:104D500080BD00BF48100020E0AE00080000000049
:104D600080B582B000AF78607B68002B1DD0142224
:104D70000021786802F0FCFC7B684FF416521A6040
:104D80007B6808221A717B6801225A717B680022B5
:104D90009A717B680022DA717B6800221A727B6844
:104DA00000225A727B6800221A7400BF0837BD4681
:104DB00080BD0000000000000000000000000000B6
:104DC00080B584B000AF786039607868FFF7F8FE8E
:104DD000034639681846FEF74BFFF860FB68184633
:104DE0001037BD4680BD000000000000000000003C
:104DF00080B400AF40231846BD4680BC7047000019
:104E000080B400AF40231846BD4680BC7047000008
:104E100080B582B000AF78607868FFF7D1FE0346B6
:104E20001846FFF72DF8034618460837BD4680BDE3
:104E300080B582B000AF78607868FFF7C1FE0346A6
:104E40001846FFF72DF8034618460837BD4680BDC3
:104E500080B582B000AF78607868FFF7B1FE034696
:104E60001846FFF74DF8034618460837BD4680BD83
:104E700080B582B000AF78607B681B681846FFF78A
:104E80002FF8034618460837BD4680BD00000000D5
:104E900080B584B000AF78607B681B681846FEF769
:104EA000EFFF0346184601F063F9F860FB68184607
:104EB0001037BD4680BD000000000000000000006B
:104EC00080B588B000AFF860B9607A60BB68BB613C
:104ED0000023FB6108E0FB695A1CFA611A46BB69B2
:104EE00013447A6952B21A70FA697B689A4206DAF8
:104EF000F868FFF7CDFF78617B69002BEBDAFB697F
:104F000018462037BD4680BD0000000000000000AC
:104F100080B588B000AFF860B9607A600023BB61EB
:104F200000237B61BB68FB6112E07A68F969F8686D
:104F3000FFF7C6FF78617B69002B07DD7B69FA69A3
:104F40001344FB617A687B69D31A7B6000F098FB9D
:104F50007B68002BE9DCBB6918462037BD4680BD65
:104F600080B582B000AF78607B681B681846FEF79A
:104F700087FF0346184601F01BF80346184608371A
:104F8000BD4680BD000000000000000000000000E1
:104F900080B584B000AF786039607B681B68FB60C7
:104FA000F868FEF77DFFB8603B68DBB21946B86869
:104FB00001F066F8034683F00103DBB2002B05D055
:104FC000F868FFF70DF84FF0FF3303E0F868FFF7DC
:104FD00007F83B6818461037BD4680BD000000004A
:104FE00080B586B000AFF860B9607A6000237B615D
:104FF000BB683B610EE07B693A6913441B78194634
:10500000F868FFF7C5FF0346B3F1FF3F07D07B69A0
:1050100001337B617A697B689A42ECDB00E000BF78
:105020007B6918461837BD4680BD000000000000AF
:1050300080B584B000AF786039607A6813465B0051
:105040001344DB000B4A1344FB603968F868FFF730
:105050009FFF0346002B04DB074B00221A603B68CE
:1050600004E0054B0B221A604FF0FF33184610374F
:10507000BD4680BDE0AE00084810002000000000E2
:1050800080B586B000AFF860B9607A6000237B61BC
:10509000FA6813465B001344DB000B4A13443B6180
:1050A0007A68B9683869FFF79BFF78617A697B682D
:1050B0009A4201D1002300E00B23044A13607B696C
:1050C00018461837BD4680BDE0AE000848100020E5
:1050D00080B588B000AFF860B9607A600023BB612A
:1050E00000237B61BB68FB6112E07A68F969F868AC
:1050F000FFF776FF78617B69002B07DD7B69FA6932
:105100001344FB617A687B69D31A7B6000F0B8FABC
:105110007B68002BE9D1BB6918462037BD4680BDAE
:1051200080B582B000AF78607B681B681846FEF7D8
:10513000B7FE0346184600F03BFF03461846083703
:10514000BD4680BD0000000000000000000000001F
:1051500080B584B000AF03463960FB713868FEF754
:105160009FFEF8603868FEF78BFEB8603868FEF77F
:10517000A7FE03461A4697F90730934237D10EE04F
:105180003868FEF71DFF0346DBB21946B86800F029
:1051900077FF034683F00103DBB2002B06D13868AA
:1051A000FEF7DEFE0346002BEAD100E000BF3868C0
:1051B000FEF7BEFE0346002B10D0F86800F0C0FEDC
:1051C000034683F00103DBB2002B07D0F86800F040
:1051D000CFFF034619463868FEF7DAFEF86800F09C
:1051E000AFFE0346002B02D03868FEF711FF00BF68
:1051F0001037BD4680BD0000000000000000000028
:1052000080B500AFFBF768F8FEE700000000000083
:1052100080B500AF00F054FB00BF80BD000000006F
:1052200080B500AF074B1B7883F00103DBB2002B86
:1052300005D00120FEF794FB024B01221A7000BF3B
:1052400080BD00BF300E0020000000000000000004
:1052500080B582B000AF0346FB71FEF799FBFFF704
:10526000DFFF97F907301BB2184600F0C1FAFEF7CE
:1052700087FBFFF785F800BF0837BD4680BD0000FB
:1052800080B500AF34220021034802F071FA0020FB
:10529000FFF7DEFF00BF80BD1410002000000000FB
:1052A00080B588B000AF0346B9607A60FB73002315
:1052B000FB61FEF76DFBB86197F90F303B2B10DCFB
:1052C000FB7BDB000B4A13447B617B691B68BA687C
:1052D0009A4206D17B695B687A689A4201D10123C0
:1052E000FB61B869FEF75CFBFB6918462037BD46D9
:1052F00080BD00BF340E0020000000000000000050
:1053000080B586B000AF0346B9607A60FB7397F949
:105310000F307A68B9681846FFF7C2FF0346002BC2
:105320000CD1FB7BDB00084A13447B617B69BA68C4
:105330001A607B697A685A60FB7B01E04FF0FF33AB
:1053400018461837BD4680BD340E0020000000000E
:1053500080B584B000AF0346FB71FB79DB000B4ADC
:105360001344FB60FB68002B0BD0FB681B68002B11
:1053700007D0FB681B68FA68516897F90720104648
:10538000984700BF1037BD4680BD00BF340E0020D7
:1053900080B582B000AF78607B6803F160007B6805
:1053A00040331A46082101F003FE7B6803F18C00AC
:1053B0007B686C330822194600F09AFD00BF08375D
:1053C000BD4680BD0000000000000000000000009D
:1053D00080B582B000AF0346FB80084BDB68002B32
:1053E00006D0064BDB68FA880449096910469847DD
:1053F000FB8818460837BD4680BD00BF141000204A
:1054000080B584B000AF7860A82001F0E9FCF860B6
:10541000FB68002B08D0A8220021F86802F0A8F948
:10542000FB687A685A6002E00820FFF7D1FFFB684A
:1054300018461037BD4680BD000000000000000087
:1054400080B582B000AF7860786801F0D9FC00BF09
:105450000837BD4680BD00000000000000000000CD
:1054600080B584B000AF7860FEF792FAB860104B58
:105470001B68FB60FB68002B0BD002E0FB681B681D
:10548000FB60FB681B68002BF8D1FB687A681A6028
:1054900005E0074A7B6813607B6800221A60B868E1
:1054A000FEF77EFA7B6818461037BD4680BD00BF08
:1054B00014100020000000000000000000000000A8
:1054C00080B584B000AF7860FEF762FAB860144B24
:1054D0001B687A689A4204D17B681B68104A136083
:1054E00016E00F4B1B68FB600CE0FB681B687A68DA
:1054F0009A4204D17B681A68FB681A6005E0FB6871
:105500001B68FB60FB68002BEFD17B6800221A60F0
:10551000B868FEF745FA7B6818461037BD4680BD6F
:105520001410002000000000000000000000000037
:1055300080B483B000AF174B5B689A6A01329A62FD
:10554000144B1B687B6017E07B689B8F002B10D08F
:105550007B685B8F002B06D10E4B5B689A6A013A21
:105560009A627B6811E07B685B8F013B9AB27B6833
:105570005A877B681B687B607B68002BE4D1054BF6
:105580005B689A6A013A9A62002318460C37BD4656
:1055900080BC7047141000200000000000000000D4
:1055A00080B582B000AF164B1B8C03F00103002BBB
:1055B00021D0134B9A69124B5B6A9A421BD0FFF7BA
:1055C000B7FF78607B68002B07D10D4B9B6A002BDF
:1055D0000DD00B4B9B6A984709E0094BDB6A002B07
:1055E00003D0074BDB6A78689847FEF7A1FA044BB3
:1055F0009B69034A536200BF0837BD4680BD00BFA8
:105600001410002000000000000000000000000056
:1056100080B483B000AF78600B467B807B687A886B
:105620009A877B687A885A87044B9B69013B034AB7
:10563000536200BF0C37BD4680BC70471410002079
:1056400080B483B000AF78607B6800229A877B6863
:1056500000225A8700BF0C37BD4680BC704700004F
:1056600080B400AF024B5B681846BD4680BC7047F3
:1056700014100020000000000000000000000000E6
:1056800080B500AF034B5B68002B01D0FEF7E0F85C
:1056900000BF80BD141000200000000000000000CA
:1056A00080B582B000AF78607B689B8A43F00403CA
:1056B0009AB27B689A827B68DB6A002B05D07B6894
:1056C000DB6A7A68D26910469847786800F0C0FAB9
:1056D0007868FFF7F5FE7868FFF7B2FE00BF08377D
:1056E000BD4680BD0000000000000000000000007A
:1056F00080B586B000AFF860B9607A603B60002387
:105700007B61354B5B68002B02D1334B1B6801E09A
:10571000314B5B681846FFF773FE78617B69002B9D
:1057200054D03B6A002B2DD07B6A1A460021386A80
:1057300002F01EF87B6A403B3A6A13443B61402208
:105740000021386902F014F83A683B691A62234A6A
:105750003B695A63BB6823F001023B699A633B696A
:105760004FF00452DA637B6A3A6A1A447B69DA6062
:105770007B69DB68A3F140027B699A607B693A6AC6
:105780001A6109E07B69164A9A607B699A687B69AD
:10579000DA607B69134A1A617B6900229A827B690D
:1057A000FA689A617B693A68DA617B693A8DDA82D4
:1057B0007B697A68DA627869FFF7EAFD7869FFF752
:1057C0004FFEBB8D19467869FFF722FF7B691846AB
:1057D0001837BD4680BD00BF14100020D158000806
:1057E000000C002000060020000000000000000067
:1057F00080B586B004AF0346FB8000230393B7F95E
:10580000063002930023019300230093002300221B
:1058100000210648FFF76CFF0346054A5360044B1E
:105820005B6818460837BD4680BD00BF70AF0008F2
:105830001410002000000000000000000000000024
:1058400080B582B000AF114B1B687B600F4B1B68AB
:105850007B6012E07B681B683B607B689B8A03F07F
:105860000403002B07D0094B5B687A689A4202D088
:105870007868FFF715FF3B687B607B68002BE9D1F8
:1058800000BF00BF0837BD4680BD00BF1410002018
:1058900080B500AFFFF784FEFFF7F2FE074B1B68F1
:1058A000184600F02DFAFFF7EBFEFFF7C9FFFFF7F0
:1058B000E7FEFEF76DFD00BF80BD00BF14100020A5
:1058C00080B500AFFFF7E4FFFFF7DAFEFAE700006C
:1058D00080B500AF084B5B681846FFF7B1FE064B7A
:1058E0005B689A8A044B5B6842F0040292B29A8227
:1058F000FFF7C6FEFCE700BF141000200000000008
:10590000034BC28A1A815860024B426B1A6070477F
:1059100014100020481000200000000000000000CB
:105920000B4A5068836A93B90A4B1B684363138917
:10593000013B1BB2002B138109DA126800680028B2
:1059400008BF1046838A5B07F8D4FFF7D9BF7047BA
:10595000141000204810002000000000000000008B
:1059600080B400AF024B9B691846BD4680BC7047AF
:1059700014100020000000000000000000000000E3
:1059800080B483B000AF78607B681B69002B0CBFCC
:1059900001230023DBB218460C37BD4680BC70479C
:1059A00080B582B000AF78607B681B7E03F0010396
:1059B000002B02D0786801F023FA00BF0837BD46FB
:1059C00080BD00000000000000000000000000009A
:1059D00080B584B000AF786039600023FB7300218C
:1059E000104801F035FA7B681B6BBB6008E03A6831
:1059F000BB689A4201D10123FB73BB685B68BB6043
:105A0000FB7B83F00103DBB2002B02D0BB68002BD1
:105A1000EDD1044801F094FAFB7B18461037BD46DF
:105A200080BD00BF6C0D00200000000000000000E1
:105A300080B584B000AF7860396039687868FFF766
:105A4000C7FF034683F00103DBB2002B24D0002103
:105A5000144801F0FDF97B681B6BFB60FB68002BB1
:105A60000ED002E0FB685B68FB60FB685B68002BA4
:105A7000F8D1FB683A685A603B68FA681A6008E037
:105A80007B683A681A633B6800221A603B68002210
:105A90005A60044801F054FA3B6818461037BD4676
:105AA00080BD00BF6C0D0020000000000000000061
:105AB00080B582B000AF7860396000211A4801F0EB
:105AC000C7F97B681B6B3A689A420CD13B685A68ED
:105AD0007B681A637B681B6B002B1CD07B681B6B7D
