S00E0000736F6E6963312E73726563C9
S31508000000EF00001C80330008803300089046000883
S315080000108033000880330008803300085047000802
S3150800002080330008803300088033000880330008D6
S3150800003080330008803300088033000880330008C6
S31508000040803300088033000880330008C02C00087D
S31508000050C02C0008C02C0008C02C0008C02C0008C2
S31508000060C02C0008C02C0008C02C0008C02C0008B2
S31508000070C02C0008C02C0008C02C0008C02C0008A2
S31508000080C02C0008C02C0008C02C0008C02C000892
S31508000090C02C0008C02C0008C02C0008C02C000882
S315080000A0C02C0008C02C0008C02C0008C02C000872
S315080000B0C02C0008C02C0008C02C0008C02C000862
S315080000C0C02C0008C02C0008C02C0008C02C000852
S315080000D0C02C0008C02C0008C02C0008C02C000842
S315080000E0C02C0008C02C0008C02C0008C02C000832
S315080000F0C02C0008C02C0008C02C0008C02C000822
S31508000100C02C0008C02C0008C02C0008C02C000811
S31508000110C02C0008C02C0008C02C0008C02C000801
S31508000120C02C0008C02C0008C02C0008C02C0008F1
S31508000130C02C0008C02C0008C02C0008C02C0008E1
S31508000140C02C0008C02C0008C02C0008C02C0008D1
S31108000150C02C0008C02C0008C02C0008B9
S3090800015C6402000823
S309080001603002000853
S31508000180411106C6EF30D076AA8637170020B75534
S31508000190000837650008814805488567130747CB77
S315080001A001469385057D130505DDEF406000EF30B8
S315080001B0305AB2400145410182800000000000002B
S315080001C07370043017050000130545018545EE05D3
S315080001D06374B5002E950285170100181301816214
S315080001E017050000130505E2731075301735000072
S315080001F0130545AD73105530EF20906FEF20507200
S3150800020017250018130505B497850018938585DF0B
S31508000210EF401038EF20D075EF309059EF20506E30
S3150800022001458145B13FEF20B07759BF0000000076
S31508000230411122C4371400208347C49406C699EF97
S315080002409307000089CB37150020130545929700C0
S315080002500000E700000085472306F494B2402244D4
S31508000260410182809307000089CFB7150020371512
S31508000270002093850595130545921703000067002E
S31508000280000082800000000000000000000000005E
S315080002902A83AE8832872A88AE8763960620B76592
S315080002A000089385059D63F1C80CC1666377D60A75
S315080002B09336061093C616008E063355D600AA95B1
S315080002C083C5050013050002AE96B305D540630B3A
S315080002D0D500B397B800B356D3003317B600D58FF9
S315080002E03318B3009355070133D3B7021316070122
S315080002F04182B3F7B7021A85B308660293960701D7
S3150800030093570801D58F63FC1701BA971305F3FFB6
S3150800031063E7E70063F517011305E3FFBA97B387A9
S315080003201741B3D8B702420813580801B3F7B70202
S31508000330B3061603C2073368F800C687637BD8007E
S315080003403A989387F8FF6366E8006374D800938742
S31508000350E8FF42055D8D8145828037050001C1466B
S31508000360E36DA6F4E14691BF11E20290C167637F8F
S31508000370F6089336061093C616008E06B357D600AF
S31508000380BE9583C70500B69793060002B385F64067
S315080003906395F608B387C84085459358070133DE49
S315080003A0170313160701418293560801B3F717037B
S315080003B072853303C603C207D58F63FC6700BA97F5
S315080003C01305FEFF63E7E70063F567001305EEFF15
S315080003D0BA97B387674033D31703420813580801FF
S315080003E0B3F71703B3066602C2073368F8009A879D
S315080003F0637BD8003A989307F3FF6366E800637453
S31508000400D8009307E3FF42055D8D8280B707000198
S31508000410C146E365F6F6E14695B73317B600B3D697
S31508000420F80013550701B357F3003318B30033D355
S31508000430A60213160701B398B8004182B3E717015D
S31508000440B3F6A602B30866029395060193D607018A
S31508000450CD8E9A8563FC1601BA969305F3FF63E77A
S31508000460E60063F516019305E3FFBA96B3861641CF
S31508000470B3D8A602C207C183B3F6A602330616038B
S31508000480C206D58FC68663FCC700BA979386F8FF5F
S3150800049063E7E70063F5C7009386E8FFBA97C205E6
S315080004A0918FD58DDDBD63E1D514C16763FFF60273
S315080004B013B70610134717000E07B7670008B3D51A
S315080004C0E6009387079DAE9783C70700BA97130779
S315080004D00002B305F7406311F7020545E3EE16E798
S315080004E03335C300134515008280B707000141471D
S315080004F0E3E5F6FC6147D1B73357F600B396B60085
S31508000500D98E33D7F800B398B800B357F300B3E7DA
S31508000510170193D80601B35E1703139806011358FB
S3150800052008013316B60033771703330ED8031315AD
S31508000530070113D70701498F7685637CC70136976C
S315080005401385FEFF6367D7006375C7011385EEFF42
S3150800055036973307C741335E1703C207C18333771C
S3150800056017033308C8034207D98F728763FC07014C
S31508000570B6971307FEFF63E7D70063F5070113076E
S31508000580EEFFB6974205416E598D9306FEFF337707
S31508000590D500B3870741F18E135805014182B30888
S315080005A0D702B306D8023307C7023308C802330690
S315080005B0D70013D7080132976373D70072989356FA
S315080005C00701C29663E0D702E397D7D8C167FD173C
S315080005D07D8F4207B3F8F8003313B3004697814579
S315080005E0E37CE3D67D1585BB814501458280000005
S315080005F03288AA872E876393061AB76800089388F5
S31508000600089D63F6C50AC166637CD608933606104C
S3150800061093C616008E063353D6009A9883C80800E8
S3150800062013030002C696B308D340630BD30033976F
S315080006301501B356D50033181601558FB317150192
S3150800064013560801B356C7021315080141813377BB
S31508000650C702B386A6029315070113D707014D8F64
S315080006606378D7004297636507016373D70042979B
S31508000670158FB356C7023377C702B386A602C207D9
S315080006804207C183D98F63F8D700C29763E507018C
S3150800069063F3D700C297958F33D5170181458280BA
S315080006A037030001C146E36866F6E146ADB711E2D5
S315080006B0029041676374E6069336061093C61600E1
S315080006C08E063357D600BA9803C70800369793069E
S315080006D00002B388E640639AE6043387C54093551B
S315080006E008013356B70213150801418193D607014D
S315080006F03377B7023306A6024207558F6378C700D9
S315080007004297636507016373C7004297118FB35613
S31508000710B7023377B702B386A60295B73707000143
S31508000720C146E360E6FAE14669BF33181601B3D657
S31508000730E500B3171501B39515013357E5001355B1
S3150800074008014D8FB3D5A6021313080113530301ED
S31508000750B3F6A602B38565021396060193560701FA
S31508000760D18E63F8B600C29663E5060163F3B60058
S31508000770C2968D8E33D6A60242074183B3F6A602E9
S3150800078033066602C206558F6378C70042976365CB
S3150800079007016373C7004297118F91B763E8D516AF
S315080007A0416863F7060513B80610134818000E08C3
S315080007B0B768000833D306019388089D9A9883C8BA
S315080007C0080013030002C298330813416319130380
S315080007D063E4B600636BC5003306C540B386D540EF
S315080007E03337C5003387E640B2873E85BA858280AF
S315080007F0B70800014148E3ED16FB614855BFB396BB
S315080008000601335316013363D300135E0301B3D6CF
S31508000810150133DFC603131703014183B397050197
S31508000820B3551501DD8D93D705013316060133152A
S315080008300501B3F6C603B30EE703C206D58FFA86DB
S3150800084063FCD7019A979306FFFF63E7670063F592
S31508000850D7019306EFFF9A97B387D741B3DEC7034D
S31508000860C205C181B3F7C7033307D703C207DD8DB6
S31508000870F68763FCE5009A959387FEFF63E76500B4
S3150800088063F5E5009387EEFF9A95C206416FDD8E04
S315080008909307FFFF135E0601998D33F7F600C182B1
S315080008A0F18FB30EF702B387F6023307C703B38691
S315080008B0C603330EF70013D70E0172976373F7005A
S315080008C0FA9693570701B697C166FD16758F4207C4
S315080008D0B3FEDE00769763E6F500639BF500637961
S315080008E0E5003306C7403337C7001A97998F328712
S315080008F03307E5403335E5009D8D898DB39815019D
S315080009003357070133E5E800B3D5050182800000B7
S315080009103707800041117D17B377A70022C426C286
S31508000920135475019354F50113D575016D8F13741E
S31508000930F40F1375F50F06C64AC0FD818E070E071C
S31508000940B306A4406395B4126353D0081DE519CBCA
S315080009509306F4FF81E6BA97054481A81306F00FBB
S315080009606314C40213F77700630E072613F7F7001C
S3150800097091466309D7269107B5A41306F00FE3033A
S31508000980C4FE37060004518FED45054663CED500F3
S3150800099013060002B355D700B306D6403317D7005F
S315080009A03337E00033E6E500B297370700047D8F5A
S315080009B055DB05041307F00F6305E4223707007EAD
S315080009C093F617007D178583F98FD58F61BFB1CA56
S315080009D0B306854001EC638007201386F6FF25DE03
S315080009E09305F00F639CB600BA8769A21306F00F49
S315080009F0E30CC5FE37060004D18F3686ED458546DD
S31508000A0063CDC50093060002918EB3D5C700B39790
S31508000A10D700B337F000B3E6F500B387E6002A84BB
S31508000A2069B79306140013F6E60F0DEA19EC638608
S31508000A30071A0DDBBA97370700047D8F05D73707E6
S31508000A4000FC7D17F98F054431BFD9DF630407120F
S31508000A508144B70700021304F00F69A21306F00FCA
S31508000A60638FC6163E97935717003684E5BD6352C3
S31508000A70D00621E9E30807EE9306F4FF81E6998F8D
S31508000A80054435A01306F00FE30EC4ECED45054604
S31508000A9063CED50013060002B355D700B306D64079
S31508000AA03317D7003337E00033E6E500918F37096F
S31508000AB0000433F72701E30707EA7D1933F927010D
S31508000AC0F9A01306F00FE30FC4E837060004518FA8
S31508000AD075BFADC2B306854015E0638B0714138650
S31508000AE0F6FF09E6B307F740AE8459BF1308F00FBF
S31508000AF0639E0601BA871304F00FB9A01306F00F18
S31508000B00E30AC5FE37060004D18F36866D4885464A
S31508000B10634DC80093060002918E33D8C700B39779
S31508000B20D700B337F000B366F800B307D7402A8476
S31508000B30AE84B5BF9306140093F6E60F9DEE0DE45A
S31508000B4091E7814445C3BA87AE8429BDE30C07E023
S31508000B50B386E74037060004758EB307F7406DF68F
S31508000B608147ADC2B687FDBBE39207EEE30207EE07
S31508000B70BA87AE841304F00FF5B33389E740B70696
S31508000B800004B376D9009DCA3309F740AE844A8576
S31508000B90EF0010406D153319A90063478502018DD2
S31508000BA0050513070002098FB357A9003319E90091
S31508000BB033392001B3E7270101446DB3E31909FC72
S31508000BC081470144814439A8B70700FCFD17098C01
S31508000BD0B377F90041BBBA8749BDBA8761B3130435
S31508000BE0F00F8147370700047D8F11CB05041307E3
S31508000BF0F00F6302E404370700FC7D17F98F13072B
S31508000C00F00F8D836316E40081C7B707400081445F
S31508000C105E043707807FA607798CA5835D8C1395BC
S31508000C20F401B240418D2244924402494101828036
S31508000C30BA87368411BF8147D9B700000000000083
S31508000C40011126CA935475014AC84EC652C493194F
S31508000C50950006CE22CC56C293F4F40F2E8A93D969
S31508000C6099001359F501A5C49307F00F638EF4068E
S31508000C708E09B7070004B3E9F900938414F8814A8A
S31508000C8093577A0113149A0093F7F70F2580135A8E
S31508000C90FA01ADC71307F00F638EE7060E04370790
S31508000CA00004598C938717F801479D8C93972A005F
S31508000CB0D98FFD173946B34649016366F606376686
S31508000CC000088A0713060699B2979C4382876384AD
S31508000CD009024E85EF00D02B9307B5FF9304A0F8C1
S31508000CE0B399F900898C61BF9304F00F894AE389A7
S31508000CF009F88D4A71B78144854A59B715C02285C6
S31508000D00EF0010299307B5FF3314F4009307A0F8F2
S31508000D10898F59BF9307F00F094741D80D4771B717
S31508000D208147054759B71316540063FB890CFD1410
S31508000D3081479355060133D8B90241677D17718FEC
S31508000D40C183B3F9B902428433050703C209B3E77D
S31508000D50370163FCA700B2971304F8FF63E7C700DF
S31508000D6063F5A7001304E8FFB297898F33D5B70256
S31508000D70B3F7B702AA853307A702C20763FCE700E1
S31508000D80B2979305F5FF63E7C70063F5E700930598
S31508000D90E5FFB2974204998F4D8CB337F0005D8C0E
S31508000DA01387F407635AE0089377740099C7937713
S31508000DB0F40011466383C7001104B7070008E18FE2
S31508000DC099C7B70700F8FD177D8C138704089307A2
S31508000DD0E00F63C8E70493573400F24062445E07A5
S31508000DE03706807FA607718FA5835D8F1395F60159
S31508000DF0D2444249B249224A924A598D05618280B3
S31508000E009397F90193D919002DB7CA864E84568748
S31508000E108D476302F70685476305F7068947E31199
S31508000E20F7F881471307F00F4DBFD286D5B73704B9
S31508000E30400081460D47E9BF8547998F6D47634254
S31508000E40F7049384E409B357F40033149400333455
S31508000E508000C18F13F7770019C713F7F7001146FB
S31508000E606303C7009107370700047D8F8D8335D745
S31508000E70814705479DB7B70740001307F00F81461E
S31508000E80A9BF8147014791BF00000000000000008C
S31508000E9093567501B7078000FD1713D6750193F6AB
S31508000EA0F60F9308F00F33F8A7001357F501ED8FE7
S31508000EB01376F60FFD81054563981601631508003C
S31508000EC06313D60081CB8280E30F16FFE39DC6FE2F
S31508000ED0E31BF8FE0145E308B7FE0545EDF6333595
S31508000EE000018280000000000000000000000000F1
S31508000EF0370780007D17935675013376A7009357F9
S31508000F00F50193F6F60F13D575011308F00F6D8FDB
S31508000F101375F50FFD816395060121C67955828003
S31508000F206313050165FFA1E211E115CB09CA6394B4
S31508000F30B700635AD500054595C37D5582807D5512
S31508000F4091CD2E85828063D6A6007D5581CB3E85C0
S31508000F508280E362C7FE0145E369E6FE82807DDEA4
S31508000F60D9BFE301D5FC61F579D7D1B700000000F8
S31508000F70370780007D17935675013376A700935778
S31508000F80F50193F6F60F13D575011308F00F6D8F5B
S31508000F901375F50FFD816395060121C60945828003
S31508000FA06313050165FFA1E211E115CB09CA639434
S31508000FB0B700635AD500054595C37D5582807D5592
S31508000FC091CD2E85828063D6A6007D5581CB3E8540
S31508000FD08280E362C7FE0145E369E6FE82807DDE24
S31508000FE0D9BFE301D5FC61F579D7D1B70000000078
S31508000FF001114AC81359750126CA4EC656C293141A
S31508001000950006CE22CC52C41379F90FAE8AA58074
S315080010109359F501630709129307F00F630FF91245
S315080010208E04B7070004DD8C130919F8014A93D713
S315080010307A0113949A0093F7F70F258093DAFA0149
S31508001040638707121307F00F638EE7120E0437073C
S315080010500004598C938717F881463E9993172A00FE
S31508001060D58F294733C55901130619006343F71667
S3150800107009476343F712FD170547637DF712C168F1
S315080010801388F8FF13D7040193570401B3760401B4
S31508001090B3F40401B3859602B306D70213D4050147
S315080010A03307F702B3879702B6973E946373D40063
S315080010B04697B3770401C207B3F50501AE97939631
S315080010C067004180B336D000E9833A94D58F1A0475
S315080010D05D8CB7070008E18F638C071093571400DF
S315080010E005885D8C1307F6076356E010937774003E
S315080010F099C79377F40091466383D7001104B7071D
S315080011000008E18F99C7B70700F8FD177D8C13070C
S3150800111006089307E00F63C5E71293573400F240B9
S3150800112062445E07B706807FA607758FA5835D8F25
S315080011307E05D2444249B249224A924A598D0561EE
S3150800114082809DC02685A9259307B5FF1309A0F8B7
S31508001150B394F4003309A940D1BD1309F00F094A25
S31508001160E38704EC0D4AE1B50149054AC9B515C03E
S315080011702285392D9307B5FF3314F4009307A0F899
S31508001180898FD9BD9307F00F8946E30804EC8D468D
S31508001190E9B581478546D1B50547B317F70013F773
S315080011A007531DEF13F7072451E793F78708E388DA
S315080011B007EC5685894581471307F00FE381B6F694
S315080011C08D476389F6068547E39EF6F08147014712
S315080011D0B9B73D476389E7002D47E38CE7FC4E85A1
S315080011E02684D286C1BF3704400001458D46C9BF53
S315080011F04A86CDBD8547998F6D47E349F7FC1306A7
S31508001200E609B357F4003314C40033348000C18FA1
S3150800121013F7770019C713F7F70091466303D7004A
S315080012209107370700047D8F8D83E30A07EE814710
S315080012300547F5B5B70740001307F00F0145C5B5D3
S3150800124081471307F00FE1BD000000000000000011
S315080012503707800041117D1713D67501B377A700AC
S3150800126022C46D8F26C21354750106C64AC013766A
S31508001270F60F9306F00F1374F40F9354F5018E07C7
S31508001280FD810E076313D60019E393C51500B3064F
S31508001290C44063979512635CD00605E263000712A3
S315080012A01386F6FF01E6BA97054481A09305F00F69
S315080012B0639DB6001304F00FC1A81306F00F63056B
S315080012C0C40C37060004518F3686ED45854663CD36
S315080012D0C50093060002918EB355C7003317D70091
S315080012E03337E000B3E6E500B697370700047D8F8D
S315080012F041CF05041307F00F6309E4223707007E80
S3150800130093F617007D178583F98FD58FB5A8B1CACF
S31508001310B306864001EC638407209385F6FFC1D5A2
S315080013201305F00F639CA600BA8769B79305F00FFB
S31508001330E30CB6FEB7050004CD8FB6856D45854628
S31508001340634DB500930600028D8E33D5B700B3976B
S31508001350D700B337F000B366F500B387E6003284EA
S3150800136069B79306140013F6E60F31E20DE8638AAF
S31508001370071A19CBBA97370700047D8F11C73707A5
S3150800138000FC7D17F98F054413F777006300071AE9
S3150800139013F7F7009146630BD718910741AAC9D7E7
S315080013A011DB8144B70700021304F00F41A21306AC
S315080013B0F00F638AC6163E97935717003684E9B727
S315080013C06350D00629E67DDB1386F6FF01E6998F82
S315080013D005442DA09305F00FE38EB6ECED45854642
S315080013E063CDC50093060002918EB355C700331727
S315080013F0D7003337E000B3E6E500958F37090004D8
S3150800140033F7270151D37D1933F92701F1A01306C4
S31508001410F00FE30BC4F637060004518F36867DBFFE
S31508001420ADC2B306864015E0638807141385F6FF38
S3150800143009E5B307F740AE8461BF1308F00F639E52
S315080014400601BA871304F00FB9A01305F00FE30AD3
S31508001450A6FE37050004C98F36856D488546634D57
S31508001460A80093060002898E33D8A700B397D70041
S31508001470B337F000B366F800B307D7403284AE84BA
S31508001480B5BF9306140093F6E60F8DEE0DE491E7CB
S31508001490814449CFBA87AE84C5BDE30707EEB38654
S315080014A0E74037060004758EB307F7406DF68147A7
S315080014B0B1CEB687D1BDE39507EEE30407EEBA874A
S315080014C0AE84CDBB3389E740B7060004B376D900AE
S315080014D095CA3309F740AE844A855D2C6D153319D4
S315080014E0A90063478502018D050513070002098FC8
S315080014F0B357A9003319E90033392001B3E72701A7
S31508001500014459B5E31A09FC81470144814439A8C5
S31508001510B70700FCFD17098CB377F900B5B5BA878C
S3150800152071BDBA8795B51304F00F814737070004D4
S315080015307D8F11CB05041307F00F6302E404370708
S3150800154000FC7D17F98F1307F00F8D836316E400EF
S3150800155081C7B707400081445E043707807FA60726
S31508001560798CA5835D8C1395F401B240418D224494
S315080015709244024941018280BA87368429BF81474D
S31508001580D9B70000000000000000000000000000BD
S31508001590B7078000FD1733F7A7005D81ED8F137538
S315080015A0F50FDD819306F00F93F5F50F6314D5005B
S315080015B0054501EB1307F00F01456394E500333544
S315080015C0F00082800000000000000000000000001B
S315080015D037068000135775019307F6FF1377F70F41
S315080015E09305E007E98F9356F50163D0E504930563
S315080015F0D00963D8E500370500801345F5FF369511
S31508001600828033E5C7009307500963DAE7001307BA
S31508001610A7F63315E50099CA3305A04082809307DB
S315080016206009998F3355F500FDB7014582800000A2
S315080016305DC19357F541411122C433C4A7001D8CDF
S3150800164026C29354F501228506C699221307E00996
S31508001650098F9307600963C1E7026115B317A400F0
S31508001660B2402244A6075E07A5831395F4015D8F51
S315080016709244598D410182809307900963DDE70002
S315080016809547898F9306B501B357F4003314D400F0
S31508001690333480005D8C954763D6A7009307B5FF62
S315080016A03314F400B70700FCFD1793767400E18F36
S315080016B091C63D8891466303D4009107B706000496
S315080016C0FD8E81CA370700FC7D17F98F1307F009CD
S315080016D0098F8D8371B781470147A607A5835E07E2
S315080016E05D8F7E05598D8280000000000000000095
S315080016F0411122C406C62A84814701CD5128930781
S31508001700E009898F13076009634EF70061153314E2
S31508001710A4002604258013957701B240418D224402
S315080017204101828013079009635DF7001307B5012D
S3150800173095463317E400898E3337E0003354D400D6
S31508001740598C15476356A7001307B5FF3314E400F1
S31508001750370700FC7D1793767400618F91C63D8824
S3150800176091466303D4001107B7060004F98E81CAAF
S31508001770B70700FCFD177D8F9307F009898F13546F
S31508001780370041BF00000000000000000000000014
S31508001790C1676376F5029337051093C717008E075E
S315080017A037670008930600029D8E3355F5009307A8
S315080017B0079DAA9703C507003385A6408280370789
S315080017C00001C147E36EE5FCE147D9BF0000000010
S315080017D00111B76700084AC803A907E0B7670008F8
S315080017E04EC683A9C7DF22CC26CA06CE52C456C225
S315080017F02A848144CA852285EFF08FEF635E05024D
S31508001800B767000883A987E0B767000803AA47E017
S31508001810B767000883AAC7DFCE852285EFF04FF5A4
S3150800182063400504F24062444249B249224A924A58
S315080018302685D24405618280CE852285EFF04FEB5E
S31508001840634905002285CE85EFF08FBF2A8495046B
S3150800185055B72285CA85EFF0AFBE2A84850459BFDD
S31508001860D2852285EFF0CFF0635905002285D6850B
S31508001870EFF00FF82A84ED1445B72285CA85EFF0F4
S315080018802FF72A84FD1449BF00000000000000005D
S315080018900111B767000822CC2A8403A587E0B76739
S315080018A000084AC803A907E0B76700084EC683A917
S315080018B0C7DF26CA06CE914463438002B76700088D
S315080018C003A907E0B767000883A9C7DFF15405E451
S315080018D0F2406244D2444249B2490561828063D7E4
S315080018E08400CE85EFF0CFF06D14F9B7CA85EFF016
S315080018F02FF07D14D1B763579400CE85EFF04FB41F
S315080019001504F1B7CA85EFF0AFB30504C9B70000EF
S31508001910411122C426C206C6A947AA842E84639406
S31508001920F500B545F53781C822852244B240A68719
S31508001930924441018287B7170020938747929843BC
S3150800194011C79306170094C323008700B2402244A8
S31508001950924441018280000000000000000000005F
S315080019607571B7670008E6D2EAD0B76C000803AD10
S31508001970C7E0B7670008EECE83AD07E193870CAEE4
S31508001980CEDED6DA06C722C526C34AC1D2DCDAD8E5
S31508001990DED6E2D4AA8A2E87B2893EC0830507001E
S315080019A06389055093075002130417006397F510CF
S315080019B0830C1700930600036398DC06830C270044
S315080019C013043700930B000301491307A002639D14
S315080019D0EC0803AA09001387490063550A00330A6D
S315080019E040410949830C0400BA8905041307E0023B
S315080019F0FD546395EC08830C04001307A002638961
S31508001A00EC0605048144A546294613870CFD137781
S31508001A10F70F63E5E606B384C4020504E6949384E7
S31508001A2004FD830CF4FFD5B79306D0026387DC0068
S31508001A3013042700930B000241BF830C27001304ED
S31508001A403700930B0002094949B7330ACA0205044D
S31508001A50669A830CF4FF130A0AFD13870CFD1377A5
S31508001A60F70FE3F4E6FE59B7014AA5462946F5B746
S31508001A7083A40900830C1400910909041307C006FE
S31508001A806399EC00830C0400638DEC02136949002A
S31508001A90050463800C4213078007634F97011307F9
S31508001AA0100663469703130750046388EC0E130762
S31508001AB080054146638AEC02E6855685913D4E8B44
S31508001AC095A8830C14001369C9000904D9B71387AC
S31508001AD0ECF91377F70FD946E3E0E6FE82470A07E3
S31508001AE03E97184302872146137789006309072A18
S31508001AF09D0913F789FF83290700032C4700130B59
S31508001B008700130740066397EC2A63550C2A333778
S31508001B103001330C8041330CEC40B3093041136972
S31508001B20190049AC2946C9B7838509005685138B20
S31508001B304900F93BDA89228795B503AC0900138B6E
S31508001B40490063160C00376C0008130C4CCE6285EE
S31508001B50EF300067AA8963C5040063F3A400A68969
S31508001B601379290063040902E29483050C0099C1DC
S31508001B7063119C02E3F049FD930500025685493B33
S31508001B808509CDBFDE85568561338509E3EC49FFB6
S31508001B90E1BF5685050CAD3BC9BF03A70900138BEA
S31508001BA0490083290700CE854E85DD326318051A5C
S31508001BB063D304009944930500004E85EFF04FBBAC
S31508001BC0130CB0026358050037070080B349370184
S31508001BD0130CD002139719000583EA853A853AC291
S31508001BE0453A01E91247EA853A85EFF06FB863444A
S31508001BF0A02A13076006639AEC0233059040493918
S31508001C00EE85EFF0EFBEAA854E85EFE07FD0AA8974
S31508001C10C136AA866353050081463387D400130666
S31508001C20C0026343E6280147A9A8930500004E852C
S31508001C30EFF00FA6814665D94E85593E058D89393F
S31508001C40EE85EFF0EFBACE85EFE09FCCAA8949364C
S31508001C50930630062A8763C9A6249306900263C5AD
S31508001C6096249306D0F96354D5001307D0F93A851C
S31508001C703AC23939AA854E85EFE09FFC1247AA89F0
S31508001C8081461306D0026305CC00130C010229A075
S31508001C9023008103130C1102B304904036853AC819
S31508001CA036C6FD36AA852AC44E85EFE07FF90D3281
S31508001CB02AC2BD3AA245EFF0AFB3AA854E85EFF02A
S31508001CC02FD9B246FD5892474247AA89628613031E
S31508001CD0E0026396160113061C0023006C001385A8
S31508001CE007032300A600FD16130C1600E3D896FA80
S31508001CF093066006638DDC02A30096019307B00283
S31508001D00635607003307E0409307D0022301F60025
S31508001D10A947B346F702130C5600B367F702938632
S31508001D200603A301D600938707032302F6002300C0
S31508001D300C000810EF30C04813792900AA849309CB
S31508001D4001026301090483850900B1E1E3F444DF74
S31508001D509305000256856D3E8504CDBFB76700081A
S31508001D60938707AD130C010203C707008507050C07
S31508001D70A30FECFE0387070065FB55BFDE85568576
S31508001D80413E8504E3EC44FF930901026DBF568585
S31508001D908509BD3E4DBF094681BB4146B1B3138B8C
S31508001DA0490083A909001307400613DCF941E38EAD
S31508001DB0ECD4014C130780071D436394EC0013030E
S31508001DC07002930801020148C68481464E85E28561
S31508001DD046CE1ACC42CA32C2EFE09F81124613178A
S31508001DE085016187E285AA8C81464E853AC832C646
S31508001DF04EC462C2EFE0CFC94247A54F924E224E6B
S31508001E00324652486243F248AA892E8C8142130F01
S31508001E10000363D7EF00B307930113978701618720
S31508001E20130707032380E800930C18006394D20174
S31508001E306367CE0085086397EC051308F0021377ED
S31508001E40190019CB93870C031810BA971307D002F9
S31508001E502388E7FC930C280013792900E68963098F
S31508001E600902FD1C338794018305070056854D3406
S31508001E70E3990CFEE3F049CD930500025685493CEB
S31508001E808509CDBF668891B7DE85568551348509A3
S31508001E90E3EC49FFF9B7B7670008938747AD230016
S31508001EA08103130C1102C9B5B7670008938787AD7C
S31508001EB0FDB7BA402A449A440A49F659665AD65A88
S31508001EC0465BB65B265C965C065DF64D496182808C
S31508001ED0397132D4301006CE36D63AD83EDA42DCDC
S31508001EE046DE32C6B53CF240216182800000000021
S31508001EF0AA851145B5A000000000000000000000FA
S31508001F00B7170020138787920C43411122C406C6CF
S31508001F109386150014C337170020130687962E9646
S31508001F202300A6002946138487929307879663069B
S31508001F30C5001306F003635AD600B6972380070038
S31508001F4013058796753723200400B24022444101C1
S31508001F508280000000000000000000000000000071
S31508001F607D5582800000000000000000000000008F
S31508001F700A8582800145000000000000000000007C
S31508001F8068D9828000000000000000000000000000
S31508001F90B71702409843B706FFE0B1061367170064
S31508001FA098C3D84337060200758FD8C39843B70637
S31508001FB0F7FEFD16758F98C39843B706FCFFFD1606
S31508001FC0758F98C3D843B70601DFFD16758FD8C33A
S31508001FD023A607029843B706F7EAFD16758F98C336
S31508001FE03707FF0098C794434167D98E94C3930770
S31508001FF0F7FFB71602409842718F19E3FD17E5FF00
S31508002000B71702409843B7060200758F11E301A07F
S31508002010D843B706C4DFFD16D8C3D843D8C3D843B8
S3150800202013670740D8C3D843758FD8C3D843B706B4
S315080020302920558FD8C3D857BD76758FD8D7D85786
S31508002040C166938616F1558FD8D79843B70600040C
S31508002050558F98C3B7060008B71702409843758F7F
S3150800206075DF9843B7060010558F98C3B70600204A
S31508002070B71702409843758F75DF9843B706000176
S31508002080558F98C3B7060002B71702409843758F55
S3150800209075DFD843719BD8C3D84313672700D8C3C5
S315080020A0371702405C43A18BF5DF828000000000F1
S315080020B0B7170240D84337160020894609830D8B87
S315080020C0130606806308D700B7177A009387072098
S315080020D01CC28280D843C166758F2DC7D857758FA5
S315080020E029CFD457D857C547918221833D8BBD8ABE
S315080020F0090785066313F7005147B7177A009387D0
S315080021000720B3D7D702B387E702371702405857D5
S315080021103D8B0507B3D7E702B7160240D842D4422B
S31508002120B70500204983ED8E3D8B95C213670701DD
S3150800213005073307F70218C28280B7177A00938714
S315080021400720E1B7B7173D0093870790F1B7BD465B
S31508002150E300D7FE0907E31ED7FC19473387E702D2
S315080021608583BA97B5B7000000000000000000009C
S315080021704111B727014006C693870740630BF50050
S31508002180B737014093870780630DF500B2404101D8
S31508002190828013059030AD2B13059030B240410173
S315080021A041A31305A030AD231305A030C5BF000019
S315080021B0B7270140938747409843B706F1FFFD16B6
S315080021C0758F98C39843498F98C382800000000092
S315080021D093F7051013F7054089890DC289C75C4135
S315080021E093E707105CC109C75C4193E707405CC1E8
S315080021F089C51C4593E727001CC5828089C75C41B1
S3150800220093F7F7EF5CC109C75C4193F7F7BF5CC169
S31508002210EDD51C45F59BCDB7000000000000000079
S315080022201C4599C5056713070780D98F1CC5828089
S315080022307D771307F77FF98FD5BF000000000000F0
S315080022401C45858B89E71C4593E717001CC58280CA
S315080022501C451307850093E787001CC51C43A18B03
S31508002260F5FF1C4593E747001CC51C43918BF5FFFA
S31508002270828000000000000000000000000000004E
S31508002280B7270140938787409843B7068000558F44
S3150800229098C38280000000000000000000000000D3
S315080022A01C4593E707101CC582800000000000004B
S315080022B085476386F50089476382F50282805C5507
S315080022C0370710FF7D17F98F5CD55C557D165206CA
S315080022D03707F000798E5D8E50D582801C5D3707F2
S315080022E0D0FF7D17F98F1CDD1C5D7D16520637075A
S315080022F03000798E5D8E10DD8280000000000000BF
S31508002300954763E1B704B385F5025859FD47B39776
S31508002310B70093C7F7FFF98FB315B600DD8D4CD913
S31508002320A54763E5C7068D47B307F6020C491D475F
S315080023303317F7001347F7FF6D8FB397F600D98F5A
S315080023401CC982802D476361B702E915B385F5027A
S315080023501859FD47B397B70093C7F7FFF98FB31519
S31508002360B600DD8D0CD96DBF3D47E36BB7FAD115C5
S31508002370B385F5025855FD47B397B70093C7F7FFDE
S31508002380F98FB315B600DD8D4CD559BFC54763E146
S31508002390C7028D4759163306F60258459D47B39727
S315080023A0C70093C7F7FFF98FB396C600DD8E54C5ED
S315080023B0828000000000000000000000000000000D
S315080023C085476386F5008947638DF50082801C453D
S315080023D03707F2FF7D17F98F1CC51C45D18F1CC521
S315080023E082801C456577FDB70000000000000000EC
S315080023F093F71500898909CE91C71C453707100040
S31508002400D98F1CC589C51C452167D98F1CC58280F3
S3150800241099C71C453707F0FF7D17F98F1CC5E5D905
S315080024201C4561777D17F98FD5B7000000000000BD
S3150800243093F7150091C71C4537074000D98F1CC56F
S31508002440898991C51C4537072000D98F1CC582800C
S3150800245093F7150089C75C4193E707045CC193F7B6
S31508002460250089C75C4193E707025CC1918989C544
S315080024705C4193E707085CC1828000000000000009
S31508002480B777004093870740984309E51367170015
S3150800249098C38280C166558FE5BF00000000000022
S315080024A0854715E5638BF5008947638DF500A1E53A
S315080024B0B777004023A4C7408280B777004023A699
S315080024C0C7408280B777004023A8C7408280638BC5
S315080024D0F5008947638DF50099EDB777004023AA83
S315080024E0C7408280B777004023ACC7408280B77761
S315080024F0004023AEC74082800000000000000000B4
S31508002500B7070240938707406316F500914763F3C0
S31508002510B70001A0D147B387F5028A05AA9798475D
S31508002520799B98C723A4070023A6070023A80700BA
S3150800253023AA07005841BD47B397B700D98F5CC196
S31508002540828000000000000000000000000000007B
S31508002550B7070240938707406316F500914763F370
S31508002560B70001A0D147B385F5021C422E951CC9B8
S315080025701C465CC9835706015CC51845F1779387E5
S31508002580F70F54467D8F5C42D58F544AD58FD98F25
S315080025901CC50347860185476316F7021C4593E762
S315080025A007041CC50347960185476311F7021C45B6
S315080025B093E707081CC58347A60189EF1C45BD9B01
S315080025C01CC582801C4593F7F7FBE1BF1C4593F7B2
S315080025D0F7F7CDB71C4593E70701DDB70000000004
S315080025E0B7070240938707406316F500914763F3E0
S315080025F0B70001A0D147B385F5022105AA959C41EC
S3150800260093E707029CC182800000000000000000DA
S31508002610B7070240938707406316F500914763F3AF
S31508002620B70001A0D147B385F5022105AA959C41BB
S3150800263093E717009CC1828000000000000000009C
S3150800264089476389F50263EBB70089ED1C4D93F75B
S31508002650F7F81CCD1C4D5D8E10CD82808D476383A7
S31508002660F50282801C4D65777D17F98F1CCD1C4DB0
S315080026702206D5B75C4D93F7F7F85CCD5C4D5D8EB9
S3150800268050CD82805C4D65777D17F98F5CCD5C4DAA
S315080026902206F5B700000000000000000000000058
S315080026A08947638DF50063E5B70099E550D98280BF
S315080026B08D476387F500828010DD828050DD828039
S315080026C030C1828000000000000000000000000009
S315080026D013576500B71702403E971443854733954D
S315080026E0A700558D08C38280000000000000000086
S315080026F0B7170240135765003E9714438547B397AB
S31508002700A70093C7F7FFF58F1CC38280000000005F
S31508002710C1B7000000000000000000000000000033
S31508002720C1BF00000000000000000000000000001B
S31508002730B7170240DC433747FFEF7D17F98F154778
S31508002740630EE5006369A70011476311E5023717B1
S3150800275002405CC382801D47E31BE5FE31773A05DC
S31508002760798DC98F37070010D98FD5B73A05C98F24
S31508002770F9BF000000000000000000000000000093
S315080027807971B765000822D441462A84938505984D
S31508002790080806D6EF20D018B70703049387172032
S315080027A03EC23EC602C002C4B7170240D843894695
S315080027B009830D8B6311D70ED843C166758F35C350
S315080027C0D857758F31CBD457DC5745479182A183AB
S315080027D0BD8BBD8A890785066393E700D1473717FE
S315080027E07A00130707203357D7023307F702B717BC
S315080027F00240DC57BD8B85073357F702B7160240F0
S31508002800DC42D44237060020C983F18EBD8B99CEAF
S3150800281093E7070185070DA037177A0013070720E6
S31508002820F9B737173D0013070790C9BFBD46E383BD
S31508002830D7FE8907638BD704B387E702B71602402A
S31508002840D84211833D8B130707020A97034707FFF0
S3150800285033D5E700D84221831D8B130707020A9751
S31508002860034607FED8422D831D8B130707020A97D6
S31508002870834687FE0947630CE4026363870211E017
S315080028803E85B2502254456182809947B307F702C4
S315080028900583BA9765B7B7177A009387072079BF74
S315080028A08D473355D500E30EF4FC0145D9BF3355A2
S315080028B0C500C1BF000000000000000000000000C5
S315080028C04111B757004022C426C206C6138707C05F
S315080028D02A84AE84630DE500636DA700B7C7FFBF02
S315080028E0938707C0AA9793F7F7BF014591EF094564
S315080028F019A8E30EF5FEB7470140938707800145FF
S315080029006314F4000D45AD3D93D51400AA95B3D5CF
S315080029109502B2409244C205C1810CC422444101C9
S315080029208280000000000000000000000000000097
S315080029305C4593F7F79F5CC55C45CD8F5CC5828087
S315080029405C457D777D17F98F5CC55C45CD8F5CC589
S315080029508280000000000000000000000000000067
S315080029601C4975777D17F98F1CC91C49CD8F1CC961
S315080029708280000000000000000000000000000047
S315080029805C450967D98F5CC582800000000000009D
S315080029905C4579777D17F98F5CC582800000000059
S315080029A05C45DD9BCD8F5CC5828000000000000081
S315080029B05C45ED9BCD8F5CC5828000000000000061
S315080029C093F5F51F4CC1828000000000000000004E
S315080029D048411375F51F82800000000000000000C2
S315080029E05C4993F7F7EFCD8F5CC982800000000041
S315080029F05C4993F7F7DFCD8F5CC982800000000041
S31508002A0093F7050193F8F50099C3B3E8C8000147A1
S31508002A10054EBD4E130F8002930F800421433316D3
S31508002A20EE00758E1DC29317270083220500339882
S31508002A30FE001348F8FF33785800B397F800B3E759
S31508002A400701639BE50550C91CC10507E31967FC27
S31508002A500146054EBD4E130F8002930F8004214395
S31508002A6093078600B317FE00F58F9DC3131726003C
S31508002A70832245003398EE001348F8FF3378580050
S31508002A803397E80033670701639CE5015CC958C1C1
S31508002A900506E31766FC8280E398F5FB10C96DB757
S31508002AA0E397F5FF1CC9E5B7000000000000000029
S31508002AB04CC98280000000000000000000000000F1
S31508002AC01375F50F71A80000000000000000000053
S31508002AD0B7775A4B372704E0938787975CC78547AC
S31508002AE01CC78280000000000000000000000000F3
S31508002AF0372702401C43E19BC98F1CC38280000014
S31508002B00B70700D2238007001205371700D2A3851E
S31508002B1007002A97B71700D263E3E700828023A04D
S31508002B200700C107D5BF0000000000000000000034
S31508002B30B71700D285070A053E9585472300F50095
S31508002B408280000000000000000000000000000075
S31508002B50B71700D20A0585073E952300050082802F
S31508002B60370700D2834707000605798993F7170EBA
S31508002B705D8D2300A7008280000000000000000091
S31508002B80B70700D203C5070005813D89828000008A
S31508002B90411122C426C206C62A84AE84D537914777
S31508002BA0114763E3A7002A87B71700D21315240035
S31508002BB08D073E95834705009376F70FB397E70091
S31508002BC093F7F70FB3D7E7402147158FB394E4007F
S31508002BD0C58F93F7F70F2300F500B24022449244BD
S31508002BE04101828000000000000000000000000093
S31508002BF0411122C426C206C6AA842E8451378D479F
S31508002C0063EEA702B71700D28D07139724003E97E5
S31508002C10834707002A86A146918E1204B3D7D74068
S31508002C201375F40FB397D700C98F93F7F70F2300DF
S31508002C30F700B24022449244410182800145D5BF43
S31508002C40F327503093F707FC93E737007390573014
S31508002C508280000000000000000000000000000064
S31508002C60B71700D289070A053E958347050093E7FB
S31508002C7017002300F5008280000000000000000015
S31508002C80B71700D289070A053E958347050093F7CB
S31508002C90D70F2300F5008280000000000000000026
S31508002CA013000000130000001300000013000000CA
S31508002CB013000000130000001300000013000000BA
S31508002CC0197173900234F322103496DEF32200341D
S31508002CD086DC8ADA8ED892D696D49AD29ED0A2CE9E
S31508002CE0A6CCAACAAEC8B2C6B6C4BAC2BEC042DE6E
S31508002CF046DC4ADA4ED852D656D45AD25ED062CE7E
S31508002D0066CC6ACA6EC872C676C47AC27EC0732595
S31508002D102034635B05041375F503EF106033F65230
S31508002D2073901234E6505651C6513652A65216536F
S31508002D3086537644E6445645C6453646A64616475D
S31508002D4086477258E2585259C259325AA25A125BE9
S31508002D50825B724CE24C524DC24D324EA24E124F1D
S31508002D60824F096173002030212D55BF00000000F5
S31508002D700000000000000000000000000000000045
S31508002D806F1000380000000000000000000000007E
S31508002D90411106C622C4F3270030F3770430EFF05A
S31508002DA02F9FEFF0EFB073240030F3770430094516
S31508002DB0813313057005A93361351D4555351D4504
S31508002DC0853B85451D45E93385451D451535B717A9
S31508002DD0002003A607808566938606FA3357D6022F
S31508002DE0B70600D1814701480D45218898C6DCC63B
S31508002DF081479CC223A20601A5350D45153B894589
S31508002E000D45793389450D45E53315C0F36704301B
S31508002E10B72704E0D8432244B24013670710D8C343
S31508002E20D8430D4513670720D8C3410151B9F37735
S31508002E300430F9BF00000000000000000000000098
S31508002E40371700D2411105079317250026C2BA97EE
S31508002E5006C622C483C7070005479384F7FF93B4C1
S31508002E601400638CE7002A84213D2285D1318D45E3
S31508002E702285393B8D452285A53BB24022442685CD
S31508002E80924441018280000000000000000000001A
S31508002E90371700D2411105079317250022C4BA97A0
S31508002EA006C683C7070005471384F7FF13341400C3
S31508002EB06393E7007139B24022852244410182803A
S31508002EC001B900000000000000000000000000003A
S31508002ED00CC982800000000000000000000000000D
S31508002EE0C2050CC982800000000000000000000036
S31508002EF01C41C84715810589828000000000000032
S31508002F00411122C406C62A84E5371840B240224435
S31508002F105C4793F7F7FD5CC741018280000000001B
S31508002F20411122C426C206C62A849304850091C18B
S31508002F30AE840840B13C03C74400A5470840814514
S31508002F406313F7008565EFF0BF9F83C754000947F1
S31508002F5008408D656389E7000D4789656385E70045
S31508002F60856591C38145EFF0BF9F83C76400054718
S31508002F700840930500406388E70009478145639444
S31508002F80E70093050060EFF0BF9A83C7740009470E
S31508002F9008406382E7060D476384E706054763969C
S31508002FA0E70093050010EFF0BFA38C400840EFF050
S31508002FB03F910840A145EFF0BF9E08409145EFF0CC
S31508002FC03F9F0840EFF0DF9B03454400B7450008E4
S31508002FD02286938505EBEF10A003034544008D3543
S31508002FE01840B24022445C479244014593E70702E1
S31508002FF05CC74101828093050020EFF07F9F75B77B
S3150800300093050010EFF0DF9D084093050020F5B703
S3150800301082800000000000000000000000000000A0
S315080030200CD12E8582800000000000000000000000
S315080030304CD12E85828000000000000000000000B0
S315080030400851828000000000000000000000000017
S3150800305048518280000000000000000000000000C7
S3150800306003454500828000000000000000000000C3
S31508003070484D8280000000000000000000000000AB
S315080030801C4188431D8105898280000000000000DC
S315080030901C418843158105898280000000000000D4
S315080030A00841411122C406C62E84EFF07F91B24032
S315080030B022852244410182800000000000000000B1
S315080030C00841411106C6EFF0BF90B2404101828027
S315080030D018415C4793E707085CC782800000000038
S315080030E018415C4793F7F7F75CC782800000000039
S315080030F0411106C6F128A929E526B2404101CDAB02
S3150800310041AB0000000000000000000000000000C5
S3150800311085B9000000000000000000000000000063
S3150800312037150020B71700209387479213060580A6
S31508003130B765000841113386C740938505E4130532
S31508003140058006C6EF10D07DB24037150020B72798
S31508003150002013064592938707D43386C7408145D6
S315080031601305459241016F20A003000000000000EE
S31508003170411122C426C237040008B704000806C64F
S315080031801304C4159384041663179400B2402244AA
S315080031909244410182801C4011048297F5B70000D1
S315080031A0411122C426C237040008B704000806C61F
S315080031B0130404169384441663179400B2402244F9
S315080031C09244410182801C4011048297F5B70000A1
S315080031D041111D4506C6EFF0AFD513050060EFF0A7
S315080031E02FCF13050050EFF0AFCE13051050EFF0B8
S315080031F02FCE13052060EFF0AFCD13053060EFF04A
S315080032002FCD13054060EFF0AFCC13055060EFF0FB
S315080032102FCC13056060EFF0AFCB1305D071EFF03C
S315080032202FCB1305E060EFF0AFCA13051071EFF06E
S315080032302FCA13059060EFF0AFC913050060EFF0D1
S315080032402FC91305C071EFF0AFC81305B070EFF0C2
S315080032502FC81305E070EFF0AFC71305B060EFF0A5
S315080032602FC7B2401305007041016FF06FC600000A
S31508003270411122C426C2AE86AE8437240008B7653B
S3150800328000082A86938505BA130504F006C6EFE0FA
S315080032903FC463C7040CB7650008938505BB1305CF
S315080032A004F0EFE0FFC213F6F401AD4763E1C70A85
S315080032B03767000893172600130707C9BA979C4370
S315080032C08287B7650008938585BB130504F0EFE090
S315080032D03FC0130504F02244B2409244B765000883
S315080032E0938585DF41016FE0BFBEB765000893850A
S315080032F0C5BCE1BFB76500089385C5BDF9B7B76515
S315080033000008938545BFD1B7B7650008938505C002
S315080033106DBFB7650008938545C145BFB765000809
S31508003320938505C25DB7B7650008938505C371BF68
S31508003330B76500089385C5C349BFB7650008938577
S3150800334005C561B7B7650008938545C6BDBFB765AE
S315080033500008938545C7130504F0EFE07FB795BFCE
S3150800336093964401D182B76500083686938505C8C9
S31508003370130504F0EFE0DFB5A9BF00000000000068
S31508003380F327807D37190020130949932320F90074
S31508003390F327A07DB7140020938484939CC0F32759
S315080033A02034B71900209389C99223A0F900F3277E
S315080033B0103437240008371A0020B76500081305AB
S315080033C004F0130A0A93938505CCB71A0020232024
S315080033D0FA00938A4AC6EFE0BFAF03A64A00B7656C
S315080033E000089385C5CC144E130504F0EFE05FAED4
S315080033F0EFE01FB883A74A00B76500082A86D847B2
S31508003400944B130504F0938585CEEFE07FACB76542
S315080034100008938545D1130504F0EFE07FAB7326CA
S315080034200034B7650008938505D2130504F0EFE06C
S315080034303FAA73260030B7650008938545D3130560
S3150800344004F0EFE0FFA873264030B76500089385BF
S3150800345085D4130504F0EFE0BFA773265030B7658F
S315080034600008130504F09385C5D5EFE07FA603266B
S315080034700A00B7650008130504F0938505D7EFE041
S315080034803FA583A5090037650008130545D8CD3340
S315080034908325090037650008130505D9D13B8C40FB
S315080034A0376500081305C5D9E13373263034B76587
S315080034B00008938585DA130504F0EFE07FA101A0E3
S315080034C06FF01FA0000000000000000000000000D0
S315080034D06FF01F9F000000000000000000000000C1
S315080034E0B71700209387478083D547008843411143
S315080034F006C6EFF0FF9EB71700209387478283D54D
S3150800350047008843EFF0DF9DB71700209387C780F1
S3150800351083D547008843EFF0BF9CB71700209387F1
S31508003520478183D547008843EFF09F9BB717002054
S315080035309387C781B24083D54700884341016FF01E
S315080035403F9A000000000000000000000000000094
S31508003550411122C4371401401305048085460946E3
S31508003560814506C6EFF0CFC989460946130504808A
S31508003570C145EFF0EFC8130504808945EFF04FD336
S315080035801305048091460D46E145EFF06FC7130514
S315080035900480A1460D469145EFF08FC613050480B9
S315080035A0C14609468145EFF0AFC513050480930669
S315080035B0000209468145EFF0AFC41305048093065F
S315080035C0000809468145EFF0AFC31305048093064A
S315080035D000100946E145EFF0AFC2930600600946C0
S315080035E013050480C145EFF0AFC1130504809305A8
S315080035F00060EFF0EFCB1305048085660946914518
S31508003600EFF00FC089460946130504C0C145EFF01F
S315080036102FBF130504C08945EFF08FC99306000232
S315080036200946130504C0C145EFF08FBD130504C054
S3150800363093050002EFF0CFC7130504C093060004F4
S315080036400946E145EFF0CFBB130504C09306000811
S3150800365009469145EFF0CFBA130504C085660D46B5
S31508003660C145EFF0EFB9130504C0A9660D46E1455B
S31508003670EFF00FB9130504C02244B24091660D4617
S31508003680914541016FF0CFB700000000000000002F
S315080036907971680006D622D426D27164112D6C0081
S315080036A01304042093048010094522C623189100A8
S315080036B023090100B12D6800E52B6C00014522C6DF
S315080036C02318910023090100A125B25022549254CF
S315080036D04561828000000000000000000000000034
S315080036E013964501518281456FE09FDB000000007B
S315080036F04111014506C6EFE0BFD80545EFE05FD8A2
S3150800370081450145F13FB240814505454101C9BFA3
S31508003710DC4D9843098B01C79843359B98C3828033
S3150800372041111306800426C2AE84814506C622C40A
S315080037302A84EF10F02681453705024044CCEFE095
S315080037403FDC5C4C1307004058C49387C7041CC071
S315080037504147930704021CC418C893070010096759
S315080037605CC058C8231CF4002286814537050240F0
S31508003770230D0400EFE0DFDD814537050240EFE069
S315080037803FE6814537050240EFE09FE8484CEFE009
S315080037903F9E0145EFE0DFA1484C05468945EFE02D
S315080037A03FA3484C054693050010EFE07FA2484C1E
S315080037B08145EFE0FFA6484C41468545EFE05FAFFF
S315080037C0484C9D4601468145EFE09FB3484C9D46CF
S315080037D005468545EFE0DFB2484C9D4609468945D2
S315080037E0EFE01FB2484C9D460D468D45EFE05FB1B0
S315080037F0484C9D4611469145EFE09FB0484C9D4682
S3150800380015469545EFE0DFAF484C9D461946994564
S31508003810EFE01FAF484C9D461D469D45EFE05FAE65
S31508003820484C9D462146A145EFE09FAD484C9D4634
S315080038302546A545EFE0DFAC484C9D462946A945F7
S31508003840EFE01FAC484C9D462D46AD45EFE05FAB1B
S31508003850484C9D463146B145EFE09FAA484C9D46E7
S315080038603546B545EFE0DFA9484C9D463946B9458A
S31508003870EFE01FA9484C9D463D46BD45EFE05FA8D1
S31508003880484C37060E008545EFE09FB3484C054681
S315080038908545EFE0FFB5584CB727014093870740A9
S315080038A06314F700EFE0DF9D484CEFE07F9905458C
S315080038B0EF101013484CEFE0BF99484CEFE05F9EBD
S315080038C0484C8545EFE0DFB6B73500082286938574
S315080038D0057113055002EF00A07313055002EFF0AF
S315080038E02FD6484C2244B2409244894541016FE0A4
S315080038F03FB60000000000000000000000000000C5
S3150800390082800000000000000000000000000000A7
S31508003910FD89C10586052E95035505005205518179
S315080039208280000000000000000000000000000087
S315080039307C412167D98F7CC11C4193E717001CC1C4
S315080039408280000000000000000000000000000067
S31508003950C5B70000000000000000000000000000DD
S315080039607C4161777D17F98F7CC11C41F99B1CC18D
S315080039708280000000000000000000000000000037
S315080039805C4593E717005CC58280000000000000D4
S3150800399023280500828000000000000000000000C7
S315080039A0C20513060004C1816FE09FC9000000002C
S315080039B001114AC83E89B7975B00938707D8B3D6E3
S315080039C0F6024EC622CC26CA52C456C206CE2320BA
S315080039D0050023220500232405002A840609AE844F
S315080039E0B28A428AB3D9E702FD16C206C18214D545
S315080039F07C4161777D17F98F7CC15D3723282403C5
S31508003A001C4093E787001CC01C44E19B1CC41C4453
S31508003A1093E767001CC41C4493F7F7F81CC4B71750
S31508003A20004013870780FD1993D919006385EA06B4
S31508003A3063645705B70700406386FA04938707400F
S31508003A406387FA04C20993D9090123263403184C5B
S31508003A504C4C1C5089466381D40A63E29604ADE84F
S31508003A601377C7F01367070363000A06DD9B93E71E
S31508003A70270093E717003DA0938707C0E394FAFC55
S31508003A801C4421A01C4493E707011CC465BF1C44C1
S31508003A9093E70702DDBF1C4493E70703FDB78D468E
S31508003AA06382D40818CC4CCC1CD022856244F240E0
S31508003AB04249B249224A924A93950401D2440146A0
S31508003AC0C18105616FE0DFBDF59B93E7870055B7B8
S31508003AD0C5769386F6CFF98E0D67558F63090A006A
S31508003AE093F7F7FD93E7070893E7070165BF93F791
S31508003AF0F7F793E70702CDBF93F6C5F093E50603FC
S31508003B00630B0A00856693F7F7DF93860680D58FE1
S31508003B1093E7071041BFFD769386F67FF58F93E707
S31508003B200720FDB7C5769386F6CF0D66ED8EB3E50D
S31508003B30C600D18F85BF000000000000000000000D
S31508003B4086050CD91C4193E787001CC182800000BA
S31508003B50232005002322050023240500232005022F
S31508003B605C4193F7F7F85CC11C4593E747001CC511
S31508003B701C4593E707041CC51C4D93E717001CCD8D
S31508003B808280000000000000000000000000000025
S31508003B901C4593E707041CC582800000000000004E
S31508003BA01C4593F7F7FB1CC5828000000000000047
S31508003BB01C4993F7F7FB1CC982800000000000002F
S31508003BC0411122C426C206C62E84AA84EFF04FC825
S31508003BD09375F40FEF00D06019E92685EFF04FCF03
S31508003BE07D54B24022852244924441018280268532
S31508003BF0EFF00FCEFDB70000000000000000000047
S31508003C00011122CC26CA4AC84EC606CEAA842E89D7
S31508003C10B2890144635934018840EFF06FC2EF005E
S31508003C203069635A0500F24022856244D24442490B
S31508003C30B24905618280B30789002380A70005047D
S31508003C40D1BF0000000000000000000000000000D6
S31508003C5061473305E502B717002023A00794B76725
S31508003C600008938707B4411122C406C6AA97804361
S31508003C702285EFF0EFA82285EFF08FBEEFF04FA177
S31508003C802285EFF0EFBBEF00B03E2285EFF04FBC88
S31508003C90EF00103E81452285EFF08FB822858145D9
S31508003CA0EFF00FB9B240224401454101828000007D
S31508003CB005C941115146814522C406C62A84EF101A
S31508003CC0204E8967938707581CC0930780105CC0ED
S31508003CD02314040023080400B240224441018280D0
S31508003CE082800000000000000000000000000000C4
S31508003CF061473305E502B7670008938707B4AA97B3
S31508003D0088436FF0EFA100000000000000000000EB
S31508003D10011126CAB714002022CC06CE4AC84EC6C0
S31508003D2023A004942A846345050861473307E502FE
S31508003D30B7670008938707B42E89BA9783A907003F
S31508003D404E85EFF0EFAF09ED13050004EF00502E96
S31508003D50AA854E85EFF0CFAC01E5B14723A0F494D0
S31508003D604E85EFF0EFAE09ED13050004EF00502C79
S31508003D70AA854E85EFF0CFAB01E5B14723A0F494B1
S31508003D80630D0900CA852285A53763580500228573
S31508003D90C135B94723A0F4947D542285EFF04FA787
S31508003DA06308850022856D35B94723A0F4947D54B0
S31508003DB0F24022856244D2444249B2490561828072
S31508003DC008416FF0EFAA00000000000000000000A4
S31508003DD0411122C426C24AC006C62A89AE84328444
S31508003DE063498000B2402244924402490145410198
S31508003DF082802286A6854A8521356354A000AA9426
S31508003E00098C3926F1BF0000000000000000000000
S31508003E100841411106C6EFF0AFA2B24041016F005A
S31508003E203033000000000000000000000000000021
S31508003E30011126CA4AC84EC652C406CE22CCAA8941
S31508003E402E89B2847D5A8DE8F2406244D2444249B2
S31508003E50B249224A0145056182800504635B9400E4
S31508003E60B307890083C5070003A50900913BE3163C
S31508003E7045FF09E4712CC1BF0144CDB72299818C55
S31508003E80D5BF000000000000000000000000000090
S31508003E900841411106C6EFF0AF9BB24041016F00E1
S31508003EA0302B0000000000000000000000000000A9
S31508003EB001114EC6AA892E8506CE22CC26CA2E8484
S31508003EC04AC8EFF0EF98AA842285EFF06F972A89FF
S31508003ED02285EFF0EF98631B35052285EFF04F9B9F
S31508003EE011C92285EFF0CF9D9375F50F4A85EF002E
S31508003EF0302F65F52285EFF0AF9801CD2685EF00C6
S31508003F00301F01E92685EF00B03AAA852285EFF031
S31508003F102F992685EF00D01D11C922856244F240EB
S31508003F20D2444249B24905616FF08F9BF240624420
S31508003F30D2444249B249056182800000000000006F
S31508003F408280000000000000000000000000000061
S31508003F5085A100000000000000000000000000002D
S31508003F60411122C4371400201304C4938347040064
S31508003F7006C699E70545EFE0BFE185472300F4004B
S31508003F80B240224441018280000000000000000087
S31508003F90011106CE2AC6F3270030F3770430C93755
S31508003FA032453D2EF3670430F240056151BF0000EB
S31508003FB0371500204111130640038145130545C6F0
S31508003FC006C6EF10E01DB24001454101D1B7000019
S31508003FD0AA87F3260030A18A737704301307600591
S31508003FE001456360F70213973700B71700209387D8
S31508003FF0C79ABA9798436316B700C843118D133505
S31508004000150081C6F36704308280F3770430828016
S31508004010411122C426C24AC006C62A842E89B28401
S31508004020453F15E1B7170020131734009387C79A41
S31508004030BA97228523A02701C4C3B24022449244DA
S315080040400249410182807D55CDBF00000000000075
S31508004050B7170020131735009387C79ABA9798435E
S3150800406019C3CC43028782800000000000000000CC
S31508004070411122C4130605042A84A1451305050621
S3150800408006C6EF10E0089305C4061305C4082244C3
S31508004090B240214641016F00B00100000000000057
S315080040A0B7170020938747C6D847411122C406C6CA
S315080040B02A8419C38C4B0297B240228522444101B7
S315080040C082800000000000000000000000000000E0
S315080040D0B7170020938747C6984F231EB502231D9E
S315080040E0B5027D17D8D382800000000000000000CA
S315080040F0B7170020938747C6C84382800000000090
S3150800410073005010828000000000000000000000CC
S31508004110B7170020938747C6DC4391C7B71700D166
S315080041200547238EE7FE828000000000000000009D
S31508004130411106C6F13FFDBF000000000000000067
S3150800414083574501411122C493E7470006C6231A3F
S31508004150F5005C552A8499C3484D829722858D219E
S31508004160F3260030A18AF3770430371700201307A7
S3150800417047C61C43631EF4001C401CC39DC2F3675C
S31508004180043022852244B24041016F007064BA8728
S3150800419091C79843E31DE4FE184098C32320040002
S315080041A0F1BFF3770430F1BF000000000000000003
S315080041B0797152CC371A00204ECEBE8993074AC66B
S315080041C04AD003A9470026D256CA5AC85EC662C450
S315080041D066C26AC006D622D4AA8C2E8DB28BB68A3F
S315080041E0BA84428C468B130A4AC66314090003290B
S315080041F00A001305800AEF00B05C2A8405C5130679
S31508004200800A8145EF00D079232224018DECB71767
S31508004210002093870780B70400201CC45CC49384DD
S31508004220044095A02145AD3DB250228522549254B2
S315080042300259F249624AD24A424BB24B224C924C3C
S31508004240024D456182804E868145138909F8268587
S315080042502699EF00F0741306000881454A85EF0099
S315080042603074B747000893870713232A5905232C68
S31508004270F906232EA9074A85A699EFD07FD02326CB
S3150800428034012324240104C8231A0400232C94018E
S31508004290232E5401231B8401232674032285C93B3C
S315080042A073270030218BF377043083270A0081CFE8
S315080042B0BE869C43F5FF80C201CFF3670430DA85DA
S315080042C02285393595B723208A0023200400EDB7C7
S315080042D0F3770430EDB7000000000000000000008E
S315080042E02A88376500084111814781480147814678
S315080042F001468145130505DC06C65D3DB240B71784
S31508004300002023A4A7C64101828000000000000007
S31508004310411122C437140020930744C683D70702E5
S3150800432006C626C2858B130444C695C3184C5C5032
S31508004330630FF7005C40084094571387160098D718
S3150800434005E594D71C5491C382971C4C5CD0C9339D
S3150800435008407924753B08401DE95D3B2244B2407C
S31508004360924441016FE0DFDA0357C50309CF0357CB
S31508004370A50319E794D75C5489EBEFE07FB4F1B74E
S315080043807D17231DE502084165BF8297FDB7835750
S3150800439045010441918B89C75C406303F5004D33A1
S315080043A026855DBF00000000000000000000000038
S315080043B0411106C6B13FEFF0BFD5EDBF00000000C2
S315080043C037170020930747C6DC43130747C6945799
S315080043D09DEE3716002083260694D4DB8356870085
S315080043E0FD16C206C1862314D70063D206020C4303
S315080043F09C4391E3AE8783D64701918AF5FA83D623
S3150800440067015CC3DC5B2314D7002320F694828003
S3150800441001114AC83719002022CC26CA2E84AA843C
S3150800442081451305C98206CE4EC6EF0070419C58D9
S3150800443095EF81491305C982EF00904563950904F4
S3150800444081451305C982EF00B03F9C589DC73E873A
S31508004450DC43F5FF40C318C06244F240D244B24977
S315080044601305C982424905616F009042D843630427
S31508004470F400BA8775BF854975BF80D82320040024
S3150800448023220400D1BFF2406244D2444249B249D1
S3150800449005618280000000000000000000000000A6
S315080044A0084913351500828000000000000000004E
S315080044B0011122CC2A8426CA4EC652C406CE4AC840
S315080044C02E8AB289B684EFF0BFC20DC02A8981450B
S315080044D071462285EF00D04CF998230C94002324CA
S315080044E0440123263401A2854A851D37F2402285D8
S315080044F06244D2444249B249224A05618280000098
S3150800450041114AC03719002022C426C22A84AE8423
S315080045101305C982814506C6EF0090321305C98284
S3150800452004C844C8EF00D036B240228522449244DB
S3150800453002494101828000000000000000000000DE
S31508004540411126C2B714002022C44AC02E842A89E3
S3150800455081451385C48206C6EF00902E81452285C3
S31508004560453781451385C482EF00902D032709033B
S315080045705C40631BE4022328F90299C323A00700C1
S315080045801385C482EF00D03083478401858B81C7A9
S315080045902285EF00F0232244B24002491385C482E3
S315080045A0924441016F00D02E184011C35CC35C4091
S315080045B091C398C32322040023200400D1B7000026
S315080045C0411122C406C62A840C5889E5B240224401
S315080045D0410182802285AD37C5BF0000000000007A
S315080045E001114EC6B719002026CA8145AA8413852B
S315080045F0C98252C456C206CE22CC4AC8EF005024FD
S31508004600B7170020938747C6984FD44F814A330A75
S31508004610D7406307D700D8CF814A3389E64099EC5B
S315080046201385C982EF00D026F2406244D24442493B
S31508004630B249224A5685924A05618280805809E421
S315080046408440EFF0FFACE1BF1C4899E70147BA9AEE
S31508004650EFF01FAC4040E5B763F447032328040096
S315080046601C4499C75044A28526858297EFF05FAA15
S31508004670834784010547898BF9FB5C481CC8C1BF81
S31508004680CA971CC8E1F7E9BF000000000000000057
S31508004690197173900234F322103496DEF322003433
S315080046A086DC8ADA8ED892D696D49AD29ED0A2CEB4
S315080046B0A6CCAACAAEC8B2C6B6C4BAC2BEC042DE84
S315080046C046DC4ADA4ED852D656D45AD25ED062CE94
S315080046D066CC6ACA6EC872C676C47AC27EC0B71776
S315080046E000D137140020238E07FE130444C6444025
S315080046F0EFD01F8888C4EFF0BFCC5C409C473E8152
S31508004700F65273901234E6505651C6513652A65296
S31508004710165386537644E6445645C6453646A64657
S31508004720164786477258E2585259C259325AA25AFF
S31508004730125B825B724CE24C524DC24D324EA24E17
S31508004740124F824F096173002030000000000000FC
S31508004750197173900234F322103496DEF322003472
S3150800476086DC8ADA8ED892D696D49AD29ED0A2CEF3
S31508004770A6CCAACAAEC8B2C6B6C4BAC2BEC042DEC3
S3150800478046DC4ADA4ED852D656D45AD25ED062CED3
S3150800479066CC6ACA6EC872C676C47AC27EC0B707C5
S315080047A000D181463714002094C3130444C6014738
S315080047B0D8C31C4C444085071CCC9C50D450138746
S315080047C01700B337F700B697DCD098D0EFD04FFA7A
S315080047D088C4EFF0FFBE5C409C473E81F65273905A
S315080047E01234E6505651C6513652A65216538653BF
S315080047F07644E6445645C6453646A646164786478F
S315080048007258E2585259C259325AA25A125B825BFE
S31508004810724CE24C524DC24D324EA24E124F824F4E
S31508004820096173002030000000000000000000004D
S31508004830411126C2AA84714522C406C6EF004078F3
S315080048402A8401CD71468145EF0090152685EF0033
S31508004850207708C009C923129400B2402285224451
S315080048609244410182802285EF0080760144F5B7A3
S3150800487005CD411122C406C626C22A84F324003077
S31508004880A188F3770430084111C199272285892721
S3150800489089C8F3670430B240224492440545410171
S315080048A08280F3770430C5BF01458280000000008E
S315080048B0411126C24AC0B2842E897146814522C456
S315080048C006C62A84EF00D00D014509C86308090009
S315080048D091C423202401231294000545B2402244A2
S315080048E09244024941018280000000000000000055
S315080048F0411122C406C626C24AC02A84732900303A
S3150800490013798900F37704305C459DC74C49829733
S31508004910AA841C488DC70C4C228582973385A440EF
S315080049201335150063000902F3670430B2402244C8
S31508004930924402494101828083546500D9BF0355D8
S315080049408400E9BFF3770430D5B700000000000003
S31508004950411122C406C626C24AC02A8473290030D9
S3150800496013798900F37704305C45A9C74C498297C7
S31508004970AA841C48B9C30C4C228582973385A44067
S31508004980635005021C48835444009DCB0C4C228579
S3150800499082975C44898C85CB4C48228582972695DC
S315080049A063060902F3670430B2402244924402497E
S315080049B041018280835465006DBF035584007DBF25
S315080049C003558400F9B703556400D1BFF377043063
S315080049D0E1BF000000000000000000000000000029
S315080049E0011122CC4EC606CE26CA4AC82A84AE89EA
S315080049F0F3240030A188F37704305C45A5C74C49F9
S31508004A0082972A891C48B5C30C4C2285829793073E
S31508004A10F5FF6309F9065C44A9CF4C4822858297BD
S31508004A2083574400FD176389A704035764001C4095
S31508004A3093061700BA972313D400238037018357A8
S31508004A4064000357440063F8E7042313F400B1C471
S31508004A50F36704300545F2406244D2444249B249FC
S31508004A60056182800359650071BF83578400FD176D
S31508004A704DB7035564006DB71C4891CB0C4C228585
S31508004A80829745F591CCF36704300145E9B783571A
S31508004A908400EDDB59BF81474DBFF37704305DBF16
S31508004AA0F3770430DDB700000000000000000000C6
S31508004AB0411122C406C626C24AC02A847329003078
S31508004AC013798900F37704305C45A9CB4C49829762
S31508004AD0AA841C48B9C70C4C22858297AA877D559B
S31508004AE06384F40283568400184093871600C2072D
S31508004AF0C18336972314F40003450700035744007F
S31508004B0063E4E7002314040063000902F367043032
S31508004B10B24022449244024941018280835465008E
S31508004B204DBF8357840065BFF3770430D5B70000BF
S31508004B3063C205021C49014563DFF50093D755405A
S31508004B408A073E961C4205453315B5007D8D3335DB
S31508004B50A00082800145828000000000000000005D
S31508004B6079715AC8032B050122D44AD052CC66C2A1
S31508004B7006D626D24ECE56CA5EC662C46AC02A89F0
S31508004B802E8A0144FD5C63446401FD5A81A0832B8F
S31508004B900900935754408A07DE979C43638D970113
S31508004BA0A284130D0402330C9A00A68A634F6C0381
S31508004BB08504E31A9DFE13040402F1B75E86CE85CA
S31508004BC04A85BD3775F58509E3CA89FFB25022546F
S31508004BD092540259F249624A424BB24B224C924CC9
S31508004BE0024D5685D24A45618280A689F1BF0000EA
S31508004BF063C005021C4963DDF50093D755408A0753
S31508004C003E9685471842B395B70081C6D98D0CC222
S31508004C10828093C5F5FFF98DDDBF00000000000016
S31508004C20011122CC06CE26CA4AC84EC6014463C420
S31508004C3005021C492A89AE84014463DEF500B3895E
S31508004C40B740B305940063083401032649004A8532
S31508004C500504F93D7DD5F24022856244D244424995
S31508004C60B2490561828000000000000000000000D3
S31508004C708280000000000000000000000000000024
S31508004C8001114AC806CE22CC26CA4EC652C456C2FE
S31508004C90014963C005041C492A84AE84014963DAC4
S31508004CA0F502B2892E89B30AB600032A440085465E
S31508004CB0631B59039305F9FF52862285153F1C4845
S31508004CC0014963D6F4000329C400960426994E8543
S31508004CD04537F2406244D244B249224A924A4A854A
S31508004CE04249056182801040CA8522851137CA85E6
S31508004CF0814652862285ED3D5C48050985075CC8D4
S31508004D006DB7000000000000000000000000000071
S31508004D108280000000000000000000000000000083
S31508004D2063C405061C49797122D426D206D64AD010
S31508004D304ECE2A84AE8463C6F504B25022549254E9
S31508004D400259F249456182801040B3853401814693
S31508004D5022852EC6713D5040B24581462285493D81
S31508004D605C48FD175CC863D3070001A08509E3ED1D
S31508004D7029FD2254B2509254F2494A850259456196
S31508004D8041BF32898149E5B78280000000000000F2
S31508004D90011152C4371A002093074AC6D84322CCB9
S31508004DA04AC81C574EC606CE26CA56C285071CD701
S31508004DB0B7170020938747942A898843B719002094
S31508004DC02E841307150098C323A4A994130A4AC668
S31508004DD093898994854763C0E700F14A33055503EB
S31508004DE0B7140020938484C97146814526954D2EB3
S31508004DF083A70900B305244113D7A500B387570332
S31508004E00931637003386D54015820A07B306E9009C
S31508004E10369781454A85A69790CB15860A06D8C740
S31508004E2090C723A02701D4C3A52E83A709008145CF
S31508004E30B3875703BE949044C8409D2603274A006B
S31508004E40F24062441C57D2444249FD171CD7B24966
S31508004E50224A924A05618280000000000000000094
S31508004E6045C939711376F5014ED693575500B719CA
S31508004E7000203336C0003E96938749C6D84322DCC5
S31508004E804AD81C5756D25AD05ECE850706DE26DA91
S31508004E9052D41CD7B717002003AB47943719002004
S31508004EA0B71A0020232409942A84938949C613092A
S31508004EB08994938A8AC9F14B8324090063D26403CF
S31508004EC0338A7403B28532C6569A5285EFF05FC9A3
S31508004ED03246AA85634A05025285EFF07FDA09E56C
S31508004EE02285EFE0EFDE014503A74900F250625440
S31508004EF01C57D2544259FD171CD7B259225A925AF6
S31508004F00025BF24B216182808504232099006DB7EC
S31508004F10014582800000000000000000000000003B
S31508004F20011126CAB7140020938744C6D84322CC59
S31508004F3006CE1C5737140020930684C985071CD74C
S31508004F4037170020B717002003A84794232407948F
S31508004F5081470146938444C613078794130484C97A
S31508004F6063C7070111C21CC3EFE08FD50DA829C17D
S31508004F70CC4683A80601B305B540958163DA1503C7
S31508004F8011C21CC37147B387E7022EC63E94228519
S31508004F90EFF01FC9B2452A862285EFF07FD8D840A0
S31508004FA0F24062441C57D244FD171CD70561828023
S31508004FB08507F10605466DB70000000000000000F1
S31508004FC045B50000000000000000000000000000D9
S31508004FD081BF000000000000000000000000000083
S31508004FE0411122C406C62A84EFF08F903717002095
S31508004FF0130747C65443AA8790561307160098D630
S315080050000357440015C30C400145639AF5008347CE
S315080050106400898B89C705072312E4000545B24059
S31508005020224490D64101828005472312E40008C035
S31508005030F5B70000000000000000000000000000B6
S31508005040797122D426D206D6AA842E8491C948001C
S31508005050EFF00FCB8946014681454800EFF04FC572
S315080050602685BD3F11E519C84800EFF06FC319C57D
S31508005070B25022549254054545618280EFF04F891B
S31508005080C5B7000000000000000000000000000096
S315080050900111B71700204AC8138947C68326490055
S315080050A026CA06CE985622CC4EC6050798D603576A
S315080050B04500938447C629C3832905002A84EFF04F
S315080050C02F83639BA9028357440083264900FD1753
S315080050D0C207C1832312F400985699EF23200400CF
S315080050E07D1798D6EFF0CF820545F2406244D24448
S315080050F04249B24905618280D84001451C57FD17CF
S315080051001CD7E5B700000000000000000000000002
S31508005110232205000CC110C5828000000000000093
S31508005120A14763EFC70081476392C70682808387DA
S3150800513005007D1685052300F700050719E282801C
S315080051402A87B3E7E5008D8BFDF381460D48B30842
S31508005150D640636818011378C6FF0D8A631DF600EA
S315080051608280B388D50003A30800B308D700910648
S3150800517023A06800E9BFB3860701B388D5008388F2
S315080051800800BA96850723801601C9BF3387F5003C
S31508005190830607003307F50085072300D70069B79C
S315080051A02A96AA876393C70082808507A38FB7FECE
S315080051B0D5BF00000000000000000000000000004D
S315080051C0AA87014599E3828005053387A700030767
S315080051D007007DFB82800000000000000000000040
S315080051E00DCDB71700204111138747C64AC00329BA
S315080051F0870122C426C206C6938447C61304F5FF50
S31508005200EFE01FF19C4CB3872741E37BF4FEB240E5
S3150800521022449244024941018280828000000000B3
S3150800522021C9B71700200111138747C652C4032A9C
S31508005230870122CC26CA4AC84EC606CE2E89B2890E
S31508005240938447C61304F5FF9C4CB3874741637A9A
S31508005250F400F2406244D2444249B249224A056106
S315080052608280EFE0FFEAE30109FE4E850299E9BF75
S31508005270828000000000000000000000000000001E
S31508005280011106CE22CC26CA4AC84EC652C4368456
S3150800529032893A8AAE89EFB0BFFBAA84A2855285C5
S315080052A0EFB01FFBAA852685EFB09FD4AA84CE85CA
S315080052B04A85EFB0FFF9AA852685EFB07F98A285C3
S315080052C0EFB00FE5F2406244D2444249B249224A5D
S315080052D00561828000000000000000000000000058
S315080052E0B71700200111938747C656C283AA8701BC
S315080052F05C55185906CE22CC26CA4AC84EC652C490
S315080053005AC0B387FA4063ECE70A834705002A8444
S31508005310BDCF5C4183A907005C45CE858843EFB0C5
S315080053203FF34C482A8AEFB0BFCC4C50EFB04FDE63
S31508005330045048D02A89A685EFB09FBB6356A006BD
S3150800534044D00C485285EFB0BFCA4C50EFB04FDC82
S315080053500C542A894E85EFB0BFEF0C4CEFB05FC9ED
S31508005360AA854A85EFB0DFEE2A89AA852685EFB099
S315080053703FC0634A0500444C4A85A685EFB05FBF27
S3150800538063430500CA841C4484C3232434032326A8
S3150800539054030545F2406244D2444249B249224A7E
S315080053A0924A024B05618280032BC4014A85DA853D
S315080053B0EFB01FBCE35705F82322640359B701452C
S315080053C0D1BF00000000000000000000000000003F
S315080053D079714ECEAE8922D4930500002A844E8573
S315080053E026D24AD006D63289B684EFB07FB0634655
S315080053F00504930500004A85EFB09FAF634F050289
S31508005400930500002685EFB0BFAE6348050208582D
S31508005410EFC00FAEB767000883A547E1EFB05F821C
S31508005420AA852AC6232834014A85EFB07FBCB2452F
S3150800543048C82685EFB0DF8008CCB2502254925473
S315080054400259F24945618280000000000000000010
S31508005450797106D622D426D24AD04ECE3E899307F3
S3150800546000005CCDB767000883A787E12A8410C5CA
S3150800547054C54CC11CD1230005000859BA84C289F9
S31508005480EFC00FA7B7670008AA8503A5C7E1EFB065
S315080054902FFBAA852AC64848EFB09FB5B24548C82B
S315080054A0084CEFB0EFF99307400608CC1CD8CE8617
S315080054B04A86A6852285293FB7170020938747C6BF
S315080054C09C4FB25092549387C7F95CD42254025920
S315080054D0F2494561828000000000000000000000DB
S315080054E0A9C5011122CC2A842E8506CE26CA4AC809
S315080054F0AE84EFC0EF9F2A890858EFC06F9FAA8530
S315080055004A85EFB0EFF3AA852AC64848EFB05FAEE2
S31508005510B24548C8084CEFB0AFF2F24004D808CC00
